:100000000C942A000C9447000C9447000C94470071
:100010000C9447000C9447000C9447000C94100675
:100020000C9447000C9447000C9447000C94470034
:100030000C9447000C9447000C9447000C94470024
:100040000C9447000C9447000C9447000C94470014
:100050000C94470011241FBECFE5D8E0DEBFCDBF12
:1000600010E0A0E6B0E0E8ECFCE002C005900D92E4
:10007000A43BB107D9F710E0A4EBB0E001C01D929A
:10008000AB3BB107E1F70E9443060C9462060C9467
:100090000000DF93CF93CDB7DEB727970FB6F89464
:1000A000DEBF0FBECDBF1F821F8246C18F81882F4A
:1000B00090E0880F991F86579F4F9C838B83EB811D
:1000C000FC8180818074882309F496C0EB81FC81D7
:1000D00080818370882F90E0880F991FFC01ED5577
:1000E000FF4FA081B181EB81FC8180818370882FDB
:1000F00090E0880F991FFC01ED55FF4F0190F081B2
:10010000E02D8081482FEB81FC818081869586954A
:100110008F70282F30E081E090E0022E02C0880F1F
:10012000991F0A94E2F7842B8C93EB81FC818081E8
:100130008078882381F1EB81FC8180818370882F16
:1001400090E0880F991FFC01E556FF4FA081B18117
:10015000EB81FC8180818370882F90E0880F991F4C
:10016000FC01E556FF4F0190F081E02D8081482F82
:10017000EB81FC818081869586958F70282F30E0F9
:1001800081E090E0022E02C0880F991F0A94E2F7E6
:10019000842B8C93CEC0EB81FC8180818370882F6F
:1001A00090E0880F991FFC01E556FF4FA081B181B7
:1001B000EB81FC8180818370882F90E0880F991FEC
:1001C000FC01E556FF4F0190F081E02D8081482F22
:1001D000EB81FC818081869586958F70282F30E099
:1001E00081E090E0022E02C0880F991F0A94E2F786
:1001F000809584238C939DC0EB81FC8180818074E9
:10020000882309F096C0EB81FC8180818370882F60
:1002100090E0880F991FFC01ED55FF4FA081B1813F
:10022000EB81FC8180818370882F90E0880F991F7B
:10023000FC01ED55FF4F0190F081E02D8081482FAA
:10024000EB81FC818081869586958F70282F30E028
:1002500081E090E0022E02C0880F991F0A94E2F715
:10026000809584238C93EB81FC818181817088232C
:1002700081F1EB81FC8180818370882F90E0880F71
:10028000991FFC01E556FF4FA081B181EB81FC81F4
:1002900080818370882F90E0880F991FFC01E556BC
:1002A000FF4F0190F081E02D8081482FEB81FC8190
:1002B0008081869586958F70282F30E081E090E0D0
:1002C000022E02C0880F991F0A94E2F7842B8C93A8
:1002D00030C0EB81FC8180818370882F90E0880F93
:1002E000991FFC01E556FF4FA081B181EB81FC8194
:1002F00080818370882F90E0880F991FFC01E5565C
:10030000FF4F0190F081E02D8081482FEB81FC812F
:100310008081869586958F70282F30E081E090E06F
:10032000022E02C0880F991F0A94E2F78095842359
:100330008C938F818F5F8F838F81863008F4B6CE48
:100340001E821E82BFC08E81282F30E0C901880F17
:10035000991F880F991F820F931F8A569F4F9A8368
:100360008983E981FA818081882F90E0880F991F25
:10037000FC01ED55FF4FA081B181E981FA819281A5
:10038000E981FA81818189238C931D8294C0E9815E
:10039000FA819281E981FA8181818923282F30E0D5
:1003A0008D81882F90E0A90102C0559547958A95C7
:1003B000E2F7CA0181709070009709F03DC0E981B1
:1003C000FA818081882F90E0880F991FFC01E55603
:1003D000FF4FA081B181E981FA818081882F90E06F
:1003E000880F991FFC01E556FF4F0190F081E02D29
:1003F0008081482F8D81282F30E081E090E002C07D
:10040000880F991F2A95E2F780954823E981FA81A0
:100410009481E981FA8181818923282F30E08D81BF
:10042000882F90E0B90102C0660F771F8A95E2F726
:10043000CB01842B8C933CC0E981FA818081882F89
:1004400090E0880F991FFC01E556FF4FA081B18114
:10045000E981FA818081882F90E0880F991FFC0143
:10046000E556FF4F0190F081E02D8081482F8D816E
:10047000282F30E081E090E002C0880F991F2A9574
:10048000E2F780954823E981FA819381E981FA8135
:1004900081818923282F30E08D81882F90E0B90158
:1004A00002C0660F771F8A95E2F7CB01842B8C93ED
:1004B0008D818F5F8D838D81883008F468CF8E8128
:1004C0008F5F8E838E81882309F43DCF27960FB6E8
:1004D000F894DEBF0FBECDBFCF91DF910895DF93BB
:1004E000CF9300D000D00F92CDB7DEB78C836D8351
:1004F0008C81863018F081E08B8376C08D818130CD
:1005000031F08D81882319F082E08B836DC08C815E
:10051000882F90E0880F991F86579F4F9A83898371
:100520008D81813081F5E981FA8180818370882F06
:1005300090E0880F991FFC01E556FF4FA081B18123
:10054000E981FA8180818370882F90E0880F991F5C
:10055000FC01E556FF4F0190F081E02D8081482F8E
:10056000E981FA818081869586958F70282F30E009
:1005700081E090E0022E02C0880F991F0A94E2F7F2
:10058000842B8C9330C0E981FA8180818370882F1D
:1005900090E0880F991FFC01E556FF4FA081B181C3
:1005A000E981FA8180818370882F90E0880F991FFC
:1005B000FC01E556FF4F0190F081E02D8081482F2E
:1005C000E981FA818081869586958F70282F30E0A9
:1005D00081E090E0022E02C0880F991F0A94E2F792
:1005E000809584238C931B828B810F900F900F90AA
:1005F0000F900F90CF91DF910895DF93CF93CDB7F8
:10060000DEB727970FB6F894DEBF0FBECDBF8D8340
:100610007F836E838D81863018F081E08C833EC0AD
:100620008E819F81009719F483E08C8337C08D8180
:10063000882F90E0880F991F86579F4F9B838A834E
:10064000EA81FB8180818370882F90E0880F991F59
:10065000FC01E555FF4F0190F081E02D8081282FAE
:1006600030E0EA81FB818081869586958F70882FA6
:1006700090E0A90102C0559547958A95E2F7CA0115
:10068000817089838981882321F4EE81FF81108222
:1006900004C0EE81FF8181E080831C828C812796DB
:1006A0000FB6F894DEBF0FBECDBFCF91DF91089596
:1006B000DF93CF9300D000D00F92CDB7DEB78C83FD
:1006C0006D838C81863018F081E08B8376C08D81BC
:1006D000882331F08D81813019F082E08B836DC0E9
:1006E0008C81882F90E0880F991F86579F4F9A839F
:1006F00089838D81813081F5E981FA8180818370E0
:10070000882F90E0880F991FFC01ED55FF4FA081C5
:10071000B181E981FA8180818370882F90E0880F10
:10072000991FFC01ED55FF4F0190F081E02D808174
:10073000482FE981FA818081869586958F70282FD0
:1007400030E081E090E0022E02C0880F991F0A94E9
:10075000E2F7842B8C9330C0E981FA818081837029
:10076000882F90E0880F991FFC01ED55FF4FA08165
:10077000B181E981FA8180818370882F90E0880FB0
:10078000991FFC01ED55FF4F0190F081E02D808114
:10079000482FE981FA818081869586958F70282F70
:1007A00030E081E090E0022E02C0880F991F0A9489
:1007B000E2F7809584238C931B828B810F900F909E
:1007C0000F900F900F90CF91DF910895DF93CF930B
:1007D00000D000D00F92CDB7DEB78C836D838C81B3
:1007E000882319F081E08B8321C08C81282F30E091
:1007F000C901880F991F880F991F820F931F8A566E
:100800009F4F9A838983E981FA818081882F90E0C4
:10081000880F991FFC01E556FF4FA081B181E98146
:10082000FA8191818D8189238C931B828B810F901A
:100830000F900F900F900F90CF91DF910895DF935D
:10084000CF9300D000D000D0CDB7DEB78C837E83AD
:100850006D838C81882319F081E08B8327C08D8183
:100860009E81009719F483E08B8320C08C81282F10
:1008700030E0C901880F991F880F991F820F931FBD
:100880008A569F4F9A838983E981FA818081882FD4
:1008900090E0880F991FFC01E555FF4F0190F08112
:1008A000E02D8081ED81FE8180831B828B812696E5
:1008B0000FB6F894DEBF0FBECDBFCF91DF91089584
:1008C000DF93CF9300D000D00F92CDB7DEB78C83EB
:1008D0006D838C81882319F081E08B8321C08C810A
:1008E000282F30E0C901880F991F880F991F820FA8
:1008F000931F8A569F4F9A838983E981FA81808169
:10090000882F90E0880F991FFC01ED55FF4FA081C3
:10091000B181E981FA8191818D8189238C931B8238
:100920008B810F900F900F900F900F90CF91DF91D0
:100930000895DF93CF93CDB7DEB70E94BA04CF916D
:10094000DF910895DF93CF93CDB7DEB7AFE5B0E089
:10095000EFE5F0E080818F778C9381E08093B400A5
:10096000AFE5B0E0EFE5F0E0808180688C93CF9157
:10097000DF910895DF93CF93CDB7DEB781E0809309
:10098000B500CF91DF910895DF93CF93CDB7DEB758
:100990001092B500CF91DF910895DF93CF930F921E
:1009A000CDB7DEB789838981882F90E0880F991FA2
:1009B000FC01EB58FF4F80819181009769F089819C
:1009C000882F90E0880F991FFC01EB58FF4F019092
:1009D000F081E02D81E086830F90CF91DF91089523
:1009E000DF93CF930F92CDB7DEB789838981882FAC
:1009F00090E0880F991FFC01EB58FF4F8081918197
:100A0000009761F08981882F90E0880F991FFC0181
:100A1000EB58FF4F0190F081E02D16820F90CF919F
:100A2000DF910895DF93CF9300D000D0CDB7DEB72C
:100A3000AFE5B0E0EFE5F0E080818F778C938091B7
:100A4000B4008C83AFE5B0E0EFE5F0E08081806832
:100A50008C938C81813009F052C08091B500813037
:100A600009F04DC01B821B8237C08B81882F90E01C
:100A7000880F991FFC01EB58FF4F808191819A8369
:100A8000898389819A81009721F1E981FA818681A0
:100A90008130F9F4E981FA8180819181009781F4B4
:100AA000E981FA810480F581E02D0995E981FA81D7
:100AB000828193810197E981FA819183808309C0C2
:100AC000E981FA81808191810197E981FA8191839D
:100AD00080838B818F5F8B838B818A3030F2AFE58F
:100AE000B0E0EFE5F0E080818F778C931092B40056
:100AF000AFE5B0E0EFE5F0E0808180688C930F9087
:100B00000F900F900F90CF91DF910895DF93CF93C7
:100B1000CDB7DEB78091B600882321F481E08093C1
:100B2000B60002C01092B6009091B60083E0692F23
:100B30000E946F02CF91DF910895DF93CF93CDB7DD
:100B4000DEB78091B700882321F481E08093B7005D
:100B500002C01092B7009091B70084E0692F0E9404
:100B60006F02CF91DF910895DF93CF93CDB7DEB7BA
:100B70008091B800882321F481E08093B80002C0FE
:100B80001092B8009091B80085E0692F0E946F0222
:100B9000CF91DF910895DF93CF93CDB7DEB7AFE468
:100BA000B0E0EFE4F0E080818E7F8C93AFE4B0E0C2
:100BB000EFE4F0E080818D7F8C93AEE4B0E0EEE472
:100BC000F0E0808188608C93AEE4B0E0EEE4F0E089
:100BD00080818F7E8C93AEE4B0E0EEE4F0E0808123
:100BE00081608C93AEE4B0E0EEE4F0E080818B7F36
:100BF0008C93AEE4B0E0EEE4F0E0808182608C9310
:100C0000A9E5B0E0E9E5F0E0808180618C93EAE459
:100C1000F0E08CE790E091838083CF91DF9108959D
:100C20001F920F920FB60F9211242F933F934F9361
:100C30005F936F937F938F939F93AF93BF93EF9344
:100C4000FF93DF93CF93CDB7DEB78091B90090913A
:100C5000BA00009729F0E091B900F091BA00099527
:100C6000CF91DF91FF91EF91BF91AF919F918F91C4
:100C70007F916F915F914F913F912F910F900FBE98
:100C80000F901F901895DF93CF93CDB7DEB782EA10
:100C900094E09093BA008093B9000E9449000E94AA
:100CA000CB050E949904AFE5B0E0EFE5F0E080816C
:100CB00080688C930E94BA0481E00E94F0040E9434
:080CC0001205FDCFF894FFCFEF
:100CC8000000E803860501FA00F4019D050177019B
:100CD800FA00B40501600067006E00000000000023
:100CE80000000000000000000001030107010B01E3
:100CF800530057005B0002FFFF00003B003800353F
:100D08000032003A00370034003100390036003331
:040D180000300000A7
:00000001FF
