:100000000C942A000C9447000C9447000C94470071
:100010000C9447000C9447000C9447000C94470044
:100020000C9447000C9447000C9447000C94470034
:100030000C9447000C9447000C9447000C94470024
:100040000C9447000C9447000C9447000C94470014
:100050000C94470011241FBECFE5D8E0DEBFCDBF12
:1000600010E0A0E6B0E0E6E2F9E002C005900D92F3
:10007000AA38B107D9F710E0AAE8B0E001C01D9294
:10008000A039B107E1F70E949D010C9491040C94F2
:100090000000DF93CF93CDB7DEB727970FB6F89464
:1000A000DEBF0FBECDBF9B838A836C834D833F83AE
:1000B0002E831982198256C08981882F90E09C0175
:1000C000220F331FC901880F991F880F991F880FAE
:1000D000991FAC01421B530B9A018A819B81FC0141
:1000E000E20FF31F92818D819817C9F5EE81FF8190
:1000F000898180838981882F90E09C01220F331FA2
:10010000C901880F991F880F991F880F991FAC018B
:10011000421B530B9A018A819B81FC01E20FF31F62
:1001200083819481009719F18981882F90E09C0147
:10013000220F331FC901880F991F880F991F880F3D
:10014000991FAC01421B530B9A018A819B81FC01D0
:10015000E20FF31F0380F481E02D099508C0898127
:100160008F5F898399818C81981708F4A5CF279692
:100170000FB6F894DEBF0FBECDBFCF91DF910895CB
:10018000DF93CF93CDB7DEB728970FB6F894DEBFD5
:100190000FBECDBF9E838D8378876F83EF81F885F7
:1001A0008081882F90E09C01220F331FC901880FA6
:1001B000991F880F991F880F991FAC01421B530B81
:1001C0009A018D819E81820F931F9C838B831A825B
:1001D00019821A8293C0EB81FC81428553858A8102
:1001E000282F30E0C901880F991F880F991F880FA9
:1001F000991F821B930BFA01E80FF91F83819481E9
:10020000009709F478C0EB81FC81428553858A818F
:10021000282F30E0C901880F991F880F991F880F78
:10022000991F821B930BFA01E80FF91F0380F481D9
:10023000E02D0995813009F05EC081E08983EB8172
:10024000FC8187819085009731F0EB81FC810780EC
:10025000F085E02D0995EB81FC81428553858A81EB
:10026000282F30E0C901880F991F880F991F880F28
:10027000991F821B930BFA01E80FF91F8281EF810E
:10028000F8858083EF81F8858081882F90E09C013C
:10029000220F331FC901880F991F880F991F880FDC
:1002A000991FAC01421B530B9A018D819E81FC0169
:1002B000E20FF31F83819481009739F1EF81F88574
:1002C0008081882F90E09C01220F331FC901880F85
:1002D000991F880F991F880F991FAC01421B530B60
:1002E0009A018D819E81FC01E20FF31F0380F4814E
:1002F000E02D09950AC08A818F5F8A83EB81FC819A
:1003000091858A81891708F466CF8981882361F4F1
:10031000EB81FC8185819681009731F0EB81FC8136
:100320000580F681E02D099528960FB6F894DEBF7A
:100330000FBECDBFCF91DF910895DF93CF93CDB79F
:10034000DEB700D0EDB7FEB7319680E690E091833E
:1003500080830E94C8010F900F9080E090E0CF91C1
:10036000DF910895DF93CF93CDB7DEB781E0CF91D2
:10037000DF910895DF93CF93CDB7DEB7CF91DF91B3
:100380000895DF93CF93CDB7DEB7CF91DF91089576
:10039000A0E0B0E0EEECF1E00C946A04FE013596CA
:1003A0006191719180918C0090918D00AF010E94BC
:1003B000DD012096E2E00C948604ABE0B0E0E3EED1
:1003C000F1E00C945A043C012B015A01FC01178204
:1003D0001682838181FD03C06FEF7FEFC6C19AE073
:1003E000892E1E010894211C311CF3012381F20186
:1003F00023FD859123FF81912F01882309F4B2C148
:10040000853239F423FD859123FF81912F018532B7
:1004100029F490E0B3010E94D003E7CF982FFF2486
:10042000EE249924FFE1FF15D0F09B3269F09C3255
:1004300028F4903259F0933291F40EC09D3249F075
:10044000903369F441E024C052E0F52A84E0F82AB0
:1004500028C098E0F92A25C0E0E1FE2A22C0F7FC76
:1004600029C0892F80538A3070F4F6FE05C0989C0D
:10047000902C1124980E15C0E89CE02C1124E80E55
:10048000F0E2FF2A0EC09E3229F4F6FC6BC140E474
:10049000F42A07C09C3619F450E8F52A02C09836B1
:1004A00049F4F20123FD959123FF91912F019923A6
:1004B00009F0B8CF892F8554833018F080528330EB
:1004C00038F444E050E0A40EB51E5FE359830FC03A
:1004D000933631F0933779F0933509F056C020C048
:1004E000F5018081898342E050E0A40EB51E6101D0
:1004F00001E010E012C0F501C080D180F6FC03C01D
:100500006FEF7FEF02C0692D70E042E050E0A40E73
:10051000B51EC6010E94C5038C015FE7F52214C019
:10052000F501C080D180F6FC03C06FEF7FEF02C001
:10053000692D70E042E050E0A40EB51EC6010E9495
:10054000BA038C0150E8F52AF3FE07C01AC080E216
:1005500090E0B3010E94D003EA948E2D90E008173A
:100560001907A8F30EC0F601F7FC8591F7FE8191FB
:100570006F0190E0B3010E94D003E110EA940150B2
:1005800010400115110579F7EAC0943611F099363B
:1005900069F5F7FE08C0F501208131814281538160
:1005A00084E090E00AC0F501808191819C0144279C
:1005B00037FD4095542F82E090E0A80EB91E9FE6CB
:1005C000F92257FF09C050954095309521953F4F2E
:1005D0004F4F5F4FE0E8FE2ACA01B901A1012AE0AE
:1005E00030E00E94FC03D82ED21840C0953729F481
:1005F0001F2D1F7E2AE030E01DC01F2D197F9F3662
:1006000061F0903720F4983509F0ACC00FC09037F6
:1006100039F0983709F0A6C004C028E030E00AC0DD
:10062000106114FD146020E130E004C014FD166078
:1006300020E132E017FF08C0F501608171818281FD
:10064000938144E050E008C0F50180819181BC01B4
:1006500080E090E042E050E0A40EB51EA1010E94AF
:10066000FC03D82ED2188FE7F82EF122F6FE0BC02D
:100670005EEFF522D91438F4F4FE07C0F2FC05C091
:100680008FEEF82202C01D2D01C0192DF4FE0DC001
:10069000FE01ED0DF11D8081803319F499EEF922F0
:1006A00008C01F5FF2FE05C003C08F2D867809F0D9
:1006B0001F5F0F2DF3FC14C0F0FE0FC01E1510F0CD
:1006C0009D2C0BC09D2C9E0C911A1E2D06C080E205
:1006D00090E0B3010E94D0031F5F1E15C0F304C059
:1006E0001E1510F4E11A01C0EE2404FF0FC080E3D0
:1006F00090E0B3010E94D00302FF1DC001FD03C0C2
:1007000088E790E00EC088E590E00BC0802F8678E7
:1007100091F001FF02C08BE201C080E2F7FC8DE2A4
:1007200090E0B3010E94D00306C080E390E0B301E3
:100730000E94D0039A94D914C0F3DA94F101ED0D1C
:10074000F11D808190E0B3010E94D003DD20A9F764
:1007500006C080E290E0B3010E94D003EA94EE204C
:10076000C1F743CEF30166817781CB012B96E2E19D
:100770000C947604FC010590615070400110D8F78C
:10078000809590958E0F9F1F0895FC0161507040D9
:1007900001900110D8F7809590958E0F9F1F0895B6
:1007A0000F931F93CF93DF938C01EB018B8181FF1C
:1007B0001BC082FF0DC02E813F818C819D81281737
:1007C000390764F4E881F9810193F983E88306C06D
:1007D000E885F985802F0995892B31F48E819F81D9
:1007E00001969F838E8302C00FEF1FEFC801DF9138
:1007F000CF911F910F910895FA01AA27283051F146
:10080000203181F1E8946F936E7F6E5F7F4F8F4F41
:100810009F4FAF4FB1E03ED0B4E03CD0670F781FA0
:10082000891F9A1FA11D680F791F8A1F911DA11D85
:100830006A0F711D811D911DA11D20D009F46894BE
:100840003F912AE0269F11243019305D3193DEF666
:10085000CF010895462F4770405D4193B3E00FD01C
:10086000C9F7F6CF462F4F70405D4A3318F0495D07
:1008700031FD4052419302D0A9F7EACFB4E0A695EA
:100880009795879577956795BA95C9F7009761050C
:10089000710508959B01AC010A2E06945795479562
:1008A00037952795BA95C9F7620F731F841F951F57
:1008B000A01D08952F923F924F925F926F927F9268
:1008C0008F929F92AF92BF92CF92DF92EF92FF9260
:1008D0000F931F93CF93DF93CDB7DEB7CA1BDB0B0C
:1008E0000FB6F894DEBF0FBECDBF09942A883988B1
:1008F00048885F846E847D848C849B84AA84B984B8
:10090000C884DF80EE80FD800C811B81AA81B981C3
:10091000CE0FD11D0FB6F894DEBF0FBECDBFED01D7
:060920000895F894FFCFDA
:100926002048656C6C6F7720776F726C640055AAEF
:1009360003B201AA5555AA01B201AA5555AA01BA90
:0A09460001C1010000026E00AA5575
:00000001FF
