:100000000C942A000C9447000C9447000C94470071
:100010000C9447000C9447000C9447000C94470044
:100020000C9447000C9447000C9447000C94470034
:100030000C9447000C9447000C9447000C94470024
:100040000C9447000C9447000C9447000C94470014
:100050000C94470011241FBECFE5D8E0DEBFCDBF12
:1000600010E0A0E6B0E0E8E5FEE202C005900D92E7
:10007000A03FB107D9F710E0A0EFB0E001C01D929A
:10008000A43FB107E1F70E94CC160C942A170C94F8
:100090000000EF92FF920F931F937B018C0120E0F1
:1000A00030E040E05FE40E94490388238CF0C801FF
:1000B000B70120E030E040E05FE40E94C1010E940F
:1000C000A9039B01AC01205030404040504806C07D
:1000D000C801B7010E94A9039B01AC01B901CA0183
:1000E0001F910F91FF90EF900895A0E0B0E0EBE733
:1000F000F0E00C94F316DC012B01FA019C91923094
:1001000008F439C1EB018881823008F433C194309E
:1001100069F4843009F02FC111969C91119789815F
:10012000981709F428C1A0E6B0E025C1843009F48D
:1001300021C18230A9F4923009F01DC19A01AD01AC
:1001400088E0EA010990AE01E90109929E0181501F
:10015000C1F7E201898111969C918923818308C1AD
:10016000923009F407C112962D903C901397EB0141
:100170008A819B811496AD90BD90CD90DC901797AD
:10018000EC80FD800E811F819101281B390BB90184
:1001900037FF04C066277727621B730B6032710537
:1001A0000CF061C0121613066CF537014801062EDB
:1001B00004C096948794779467940A94D2F721E0C8
:1001C00030E040E050E004C0220F331F441F551FB1
:1001D0006A95D2F721503040404050402E213F21B7
:1001E00040235123211531054105510521F021E01E
:1001F00030E040E050E079018A01E628F72808293C
:1002000019293CC0232BD1F1260E371E350146019A
:10021000062E04C096948794779467940A94D2F734
:1002200021E030E040E050E004C0220F331F441FC3
:10023000551F6A95D2F721503040404050402A2146
:100240003B214C215D21211531054105510521F04E
:1002500021E030E040E050E059016A01A628B728CB
:10026000C828D9280BC0821593052CF01C01AA249C
:10027000BB24650103C0EE24FF24870111969C91E5
:10028000D20111968C91981709F445C0992339F041
:10029000A80197012A193B094C095D0906C0A6016E
:1002A00095012E193F09400B510B57FD08C01182D3
:1002B0003382228224833583468357831DC081E0A5
:1002C00081833382228288279927DC01821B930B4A
:1002D000A40BB50B84839583A683B7830DC0220F2F
:1002E000331F441F551F24833583468357838281E0
:1002F000938101979383828324813581468157813D
:10030000DA01C9010197A109B1098F5F9F4FAF4F72
:10031000BF4328F30BC0918333822282EA0CFB1C7B
:100320000C1D1D1DE482F5820683178383E0808304
:10033000248135814681578157FF1AC0C901AA27F8
:1003400097FDA095BA2F81709070A070B0705695EF
:10035000479537952795822B932BA42BB52B848318
:100360009583A683B7838281938101969383828349
:10037000DF0101C0D201CD01CDB7DEB7E2E10C94BF
:100380000F17A0E2B0E0E7ECF1E00C94FF166983F0
:100390007A838B839C832D833E834F835887E9E048
:1003A000EE2EF12CEC0EFD1ECE010196B7010E943F
:1003B000D2048E010F5E1F4FCE010596B8010E9438
:1003C000D2048A8991E089278A8BC701B801AE01DE
:1003D000475E5F4F0E9475000E94FD03A096E6E015
:1003E0000C941B17A0E2B0E0E8EFF1E00C94FF16CC
:1003F00069837A838B839C832D833E834F835887C5
:10040000F9E0EF2EF12CEC0EFD1ECE010196B701A6
:100410000E94D2048E010F5E1F4FCE010596B801D7
:100420000E94D204C701B801AE01475E5F4F0E942F
:1004300075000E94FD03A096E6E00C941B17A0E255
:10044000B0E0E5E2F2E00C94F31669837A838B83E3
:100450009C832D833E834F835887CE010196BE0136
:10046000675F7F4F0E94D204CE010596BE016F5E8A
:100470007F4F0E94D2049985923088F0898982301A
:10048000C8F0943019F4823051F404C0843029F457
:10049000923081F480E690E0C6C0923049F420E0CA
:1004A0009A858A89981321E02A87CE010996BBC0D4
:1004B000823049F420E09A858A89981321E02A8BBA
:1004C000CE014196B0C02D843E844F8458886D88FB
:1004D0007E888F88988CEE24FF248701AA24BB2471
:1004E000650140E050E060E070E0E0E0F0E0C10174
:1004F00081709070892BE9F0E60CF71C081D191D1E
:100500009A01AB012A0D3B1D4C1D5D1D80E090E062
:10051000A0E0B0E0E614F7040805190520F481E036
:1005200090E0A0E0B0E0BA01A901480F591F6A1F8E
:100530007B1FAA0CBB1CCC1CDD1C97FE08C081E0F5
:1005400090E0A0E0B0E0A82AB92ACA2ADB2A3196B6
:10055000E032F10549F0660C771C881C991C569412
:10056000479437942794C3CFFA85EA892B893C892D
:100570008B859C85280F391F2E5F3F4F17C0CA01FE
:1005800081709070892B61F016950795F794E79428
:1005900080E090E0A0E0B0E8E82AF92A0A2B1B2BC3
:1005A00076956795579547952F5F3F4F77FDE7CF36
:1005B0000CC0440F551F661F771F17FD4160EE0CDE
:1005C000FF1C001F111F21503040403090E05907A0
:1005D00090E0690790E4790760F32B8F3C8FDB0193
:1005E000CA018F779070A070B07080349105A1051A
:1005F000B10561F447FD0AC0E114F10401051105DC
:1006000029F0405C5F4F6F4F7F4F40781A8EFE1786
:1006100011F081E08A8F4D8F5E8F6F8F78A383E01A
:10062000898FCE0149960E94FD03A096E2E10C94C9
:100630000F17A8E1B0E0EFE1F3E00C94FF16698337
:100640007A838B839C832D833E834F83588789E0F5
:10065000E82EF12CEC0EFD1ECE010196B7010E9492
:10066000D2048E010F5E1F4FCE010596B8010E9485
:10067000D2048985823040F08989823028F0C70110
:10068000B8010E944A0501C08FEF6896E6E00C941D
:100690001B17A8E1B0E0EFE4F3E00C94FF166983C8
:1006A0007A838B839C832D833E834F83588789E095
:1006B000E82EF12CEC0EFD1ECE010196B7010E9432
:1006C000D2048E010F5E1F4FCE010596B8010E9425
:1006D000D2048985823040F08989823028F0C701B0
:1006E000B8010E944A0501C08FEF6896E6E00C94BD
:1006F0001B17A8E1B0E0EFE7F3E00C94FF16698365
:100700007A838B839C832D833E834F83588789E034
:10071000E82EF12CEC0EFD1ECE010196B7010E94D1
:10072000D2048E010F5E1F4FCE010596B8010E94C4
:10073000D2048985823040F08989823028F0C7014F
:10074000B8010E944A0501C081E06896E6E00C9479
:100750001B17ACE0B0E0EFEAF3E00C9403176983F9
:100760007A838B839C83CE010196BE016B5F7F4FA2
:100770000E94D2048D81823061F1823050F1843048
:1007800021F48E81882351F12EC02F81388537FDC9
:1007900020C06E812F3131051CF06623F9F023C093
:1007A0008EE190E0821B930B29853A854B855C8511
:1007B00004C056954795379527958A95D2F76623B5
:1007C000B1F050954095309521953F4F4F4F5F4F79
:1007D0000EC020E030E040E050E009C02FEF3FEFD6
:1007E0004FEF5FE704C020E030E040E050E8B9019F
:1007F000CA012C96E2E00C941F17DF92EF92FF9251
:100800000F931F93FC01E480F58006811781D1804E
:100810008081823048F480E090E0A0E1B0E0E82AF6
:10082000F92A0A2B1B2BA5C0843009F49FC0823003
:1008300021F4EE24FF24870105C0E114F104010531
:10084000110519F4E0E0F0E096C0628173819FEF3A
:10085000623879070CF05BC022E83FEF261B370BAC
:100860002A3131052CF020E030E040E050E02AC091
:10087000B801A701022E04C0769567955795479554
:100880000A94D2F781E090E0A0E0B0E004C0880FC5
:10089000991FAA1FBB1F2A95D2F70197A109B10979
:1008A0008E219F21A023B1230097A105B10521F03E
:1008B00081E090E0A0E0B0E09A01AB01282B392B59
:1008C0004A2B5B2BDA01C9018F779070A070B07052
:1008D00080349105A105B10539F427FF09C0205CDA
:1008E0003F4F4F4F5F4F04C0215C3F4F4F4F5F4F13
:1008F000E0E0F0E02030A0E03A07A0E04A07A0E402
:100900005A0710F0E1E0F0E079018A0127C0603871
:10091000710564F5FB01E158FF4FD801C7018F77DE
:100920009070A070B07080349105A105B10539F4C4
:10093000E7FE0DC080E490E0A0E0B0E004C08FE3EB
:1009400090E0A0E0B0E0E80EF91E0A1F1B1F17FFA1
:1009500005C016950795F794E794319687E01695AC
:100960000795F794E7948A95D1F705C0EE24FF2404
:100970008701EFEFF0E06E2F679566276795902F60
:100980009F77D794DD24D7948E2F8695492F462BB9
:10099000582F5D29B701CA011F910F91FF90EF9069
:1009A000DF900895FC01DB01408151812281622F9B
:1009B0006F7770E0221F2227221F9381892F880FD3
:1009C000822B282F30E0991F9927991F11969C930D
:1009D000119721153105A9F54115510561057105DD
:1009E00011F482E037C082E89FEF13969C938E93B8
:1009F00012979A01AB0167E0220F331F441F551F66
:100A00006A95D1F783E08C930DC0220F331F441FEA
:100A1000551F12968D919C911397019713969C9355
:100A20008E931297203080E0380780E0480780E4FA
:100A3000580758F314962D933D934D935C93179755
:100A400008952F3F310579F4411551056105710570
:100A500019F484E08C93089564FF03C081E08C93C3
:100A600012C01C9210C02F57304013963C932E9307
:100A7000129783E08C9387E0440F551F661F771F02
:100A80008A95D1F7706414964D935D936D937C9322
:100A9000179708951F93DC01FB019C91923008F495
:100AA00047C08081823008F443C0943051F41196DD
:100AB0001C91843099F58181682F70E0611B710968
:100AC0003FC0843021F0923031F48230B9F181811D
:100AD000882389F12DC011961C9111978230F1F075
:100AE00081811817D9F412962D913C911397828128
:100AF00093818217930794F028173907BCF0149656
:100B00008D919D910D90BC91A02D248135814681C0
:100B10005781281739074A075B0718F4112341F05A
:100B20000AC082179307A407B50740F4112319F0F0
:100B300061E070E005C06FEF7FEF02C060E070E041
:100B4000CB011F910895DF93CF93CDB7DEB72797E1
:100B50000FB6F894DEBF0FBECDBF1F821F8246C105
:100B60008F81882F90E0880F991F84549F4F9C831A
:100B70008B83EB81FC8180818074882309F496C08B
:100B8000EB81FC8180818370882F90E0880F991F12
:100B9000FC01EB52FF4FA081B181EB81FC81808190
:100BA0008370882F90E0880F991FFC01EB52FF4F54
:100BB0000190F081E02D8081482FEB81FC818081C4
:100BC000869586958F70282F30E081E090E0022E88
:100BD00002C0880F991F0A94E2F7842B8C93EB8153
:100BE000FC8180818078882381F1EB81FC81808188
:100BF0008370882F90E0880F991FFC01E353FF4F0B
:100C0000A081B181EB81FC8180818370882F90E08D
:100C1000880F991FFC01E353FF4F0190F081E02DF5
:100C20008081482FEB81FC818081869586958F702D
:100C3000282F30E081E090E0022E02C0880F991F3B
:100C40000A94E2F7842B8C93CEC0EB81FC818081E7
:100C50008370882F90E0880F991FFC01E353FF4FAA
:100C6000A081B181EB81FC8180818370882F90E02D
:100C7000880F991FFC01E353FF4F0190F081E02D95
:100C80008081482FEB81FC818081869586958F70CD
:100C9000282F30E081E090E0022E02C0880F991FDB
:100CA0000A94E2F7809584238C939DC0EB81FC81AC
:100CB00080818074882309F096C0EB81FC8180815B
:100CC0008370882F90E0880F991FFC01EB52FF4F33
:100CD000A081B181EB81FC8180818370882F90E0BD
:100CE000880F991FFC01EB52FF4F0190F081E02D1E
:100CF0008081482FEB81FC818081869586958F705D
:100D0000282F30E081E090E0022E02C0880F991F6A
:100D10000A94E2F7809584238C93EB81FC81818196
:100D20008170882381F1EB81FC8180818370882F21
:100D300090E0880F991FFC01E353FF4FA081B18120
:100D4000EB81FC8180818370882F90E0880F991F50
:100D5000FC01E353FF4F0190F081E02D8081482F8B
:100D6000EB81FC818081869586958F70282F30E0FD
:100D700081E090E0022E02C0880F991F0A94E2F7EA
:100D8000842B8C9330C0EB81FC8180818370882F11
:100D900090E0880F991FFC01E353FF4FA081B181C0
:100DA000EB81FC8180818370882F90E0880F991FF0
:100DB000FC01E353FF4F0190F081E02D8081482F2B
:100DC000EB81FC818081869586958F70282F30E09D
:100DD00081E090E0022E02C0880F991F0A94E2F78A
:100DE000809584238C938F818F5F8F838F81863052
:100DF00008F4B6CE1E821E82BFC08E81282F30E03E
:100E0000C901880F991F880F991F820F931F88535C
:100E10009F4F9A838983E981FA818081882F90E0AE
:100E2000880F991FFC01EB52FF4FA081B181E9812E
:100E3000FA819281E981FA81818189238C931D82D3
:100E400094C0E981FA819281E981FA8181818923C3
:100E5000282F30E08D81882F90E0A90102C05595A0
:100E600047958A95E2F7CA0181709070009709F062
:100E70003DC0E981FA818081882F90E0880F991F19
:100E8000FC01E353FF4FA081B181E981FA818081A8
:100E9000882F90E0880F991FFC01E353FF4F0190CA
:100EA000F081E02D8081482F8D81282F30E081E076
:100EB00090E002C0880F991F2A95E2F78095482399
:100EC000E981FA819481E981FA8181818923282F3E
:100ED00030E08D81882F90E0B90102C0660F771F46
:100EE0008A95E2F7CB01842B8C933CC0E981FA818F
:100EF0008081882F90E0880F991FFC01E353FF4FFA
:100F0000A081B181E981FA818081882F90E0880FEA
:100F1000991FFC01E353FF4F0190F081E02D808188
:100F2000482F8D81282F30E081E090E002C0880FAB
:100F3000991F2A95E2F780954823E981FA819381E8
:100F4000E981FA8181818923282F30E08D81882FE2
:100F500090E0B90102C0660F771F8A95E2F7CB01D6
:100F6000842B8C938D818F5F8D838D81883008F4E5
:100F700068CF8E818F5F8E838E81882309F43DCF69
:100F800027960FB6F894DEBF0FBECDBFCF91DF918D
:100F90000895DF93CF9300D000D00F92CDB7DEB786
:100FA0008C836D838C81863018F081E08B8376C0D2
:100FB0008D81813031F08D81882319F082E08B831F
:100FC0006DC08C81882F90E0880F991F84549F4FAB
:100FD0009A8389838D81813081F5E981FA818081CD
:100FE0008370882F90E0880F991FFC01E353FF4F17
:100FF000A081B181E981FA8180818370882F90E09E
:10100000880F991FFC01E353FF4F0190F081E02D01
:101010008081482FE981FA818081869586958F703D
:10102000282F30E081E090E0022E02C0880F991F47
:101030000A94E2F7842B8C9330C0E981FA81808195
:101040008370882F90E0880F991FFC01E353FF4FB6
:10105000A081B181E981FA8180818370882F90E03D
:10106000880F991FFC01E353FF4F0190F081E02DA1
:101070008081482FE981FA818081869586958F70DD
:10108000282F30E081E090E0022E02C0880F991FE7
:101090000A94E2F7809584238C931B828B810F90B6
:1010A0000F900F900F900F90CF91DF910895DF93E5
:1010B000CF93CDB7DEB727970FB6F894DEBF0FBE3C
:1010C000CDBF8D837F836E838D81863018F081E064
:1010D0008C833EC08E819F81009719F483E08C83BE
:1010E00037C08D81882F90E0880F991F84549F4FBF
:1010F0009B838A83EA81FB8180818370882F90E0C3
:10110000880F991FFC01E352FF4F0190F081E02D01
:101110008081282F30E0EA81FB8180818695869549
:101120008F70882F90E0A90102C0559547958A9548
:10113000E2F7CA01817089838981882321F4EE81D5
:10114000FF81108204C0EE81FF8181E080831C82D8
:101150008C8127960FB6F894DEBF0FBECDBFCF911E
:10116000DF910895DF93CF9300D000D00F92CDB7D9
:10117000DEB78C836D838C81863018F081E08B83A1
:1011800076C08D81882331F08D81813019F082E025
:101190008B836DC08C81882F90E0880F991F8454B9
:1011A0009F4F9A8389838D81813081F5E981FA810E
:1011B00080818370882F90E0880F991FFC01EB528B
:1011C000FF4FA081B181E981FA8180818370882FEE
:1011D00090E0880F991FFC01EB52FF4F0190F081C6
:1011E000E02D8081482FE981FA818081869586955E
:1011F0008F70282F30E081E090E0022E02C0880F2F
:10120000991F0A94E2F7842B8C9330C0E981FA810C
:1012100080818370882F90E0880F991FFC01EB522A
:10122000FF4FA081B181E981FA8180818370882F8D
:1012300090E0880F991FFC01EB52FF4F0190F08165
:10124000E02D8081482FE981FA81808186958695FD
:101250008F70282F30E081E090E0022E02C0880FCE
:10126000991F0A94E2F7809584238C931B828B81CB
:101270000F900F900F900F900F90CF91DF910895E6
:10128000DF93CF9300D000D00F92CDB7DEB78C8321
:101290006D838C81882319F081E08B8321C08C8140
:1012A000282F30E0C901880F991F880F991F820FDE
:1012B000931F88539F4F9A838983E981FA818081A4
:1012C000882F90E0880F991FFC01E353FF4FA08106
:1012D000B181E981FA8191818D8189238C931B826F
:1012E0008B810F900F900F900F900F90CF91DF9107
:1012F0000895DF93CF9300D000D000D0CDB7DEB7F4
:101300008C837E836D838C81882319F081E08B83AD
:1013100027C08D819E81009719F483E08B8320C0C4
:101320008C81282F30E0C901880F991F880F991FE1
:10133000820F931F88539F4F9A838983E981FA8193
:101340008081882F90E0880F991FFC01E352FF4FA6
:101350000190F081E02D8081ED81FE8180831B82F0
:101360008B8126960FB6F894DEBF0FBECDBFCF910E
:10137000DF910895DF93CF9300D000D00F92CDB7C7
:10138000DEB78C836D838C81882319F081E08B8399
:1013900021C08C81282F30E0C901880F991F880F48
:1013A000991F820F931F88539F4F9A838983E981E6
:1013B000FA818081882F90E0880F991FFC01EB5201
:1013C000FF4FA081B181E981FA8191818D818923CB
:1013D0008C931B828B810F900F900F900F900F902A
:1013E000CF91DF910895DF93CF93CDB7DEB72797E5
:1013F0000FB6F894DEBF0FBECDBF9B838A836C838C
:101400004D833F832E831982198256C08981882F8C
:1014100090E09C01220F331FC901880F991F880F8C
:10142000991F880F991FAC01421B530B9A018A81A7
:101430009B81FC01E20FF31F92818D819817C9F502
:10144000EE81FF81898180838981882F90E09C01D2
:10145000220F331FC901880F991F880F991F880F0A
:10146000991FAC01421B530B9A018A819B81FC019D
:10147000E20FF31F83819481009719F18981882FEE
:1014800090E09C01220F331FC901880F991F880F1C
:10149000991F880F991FAC01421B530B9A018A8137
:1014A0009B81FC01E20FF31F0380F481E02D09957D
:1014B00008C089818F5F898399818C81981708F48E
:1014C000A5CF27960FB6F894DEBF0FBECDBFCF9144
:1014D000DF910895DF93CF93CDB7DEB728970FB68E
:1014E000F894DEBF0FBECDBF9E838D8378876F8358
:1014F000EF81F8858081882F90E09C01220F331FB7
:10150000C901880F991F880F991F880F991FAC0177
:10151000421B530B9A018D819E81820F931F9C83E6
:101520008B831A8219821A8293C0EB81FC814285D7
:1015300053858A81282F30E0C901880F991F880FB1
:10154000991F880F991F821B930BFA01E80FF91F4F
:1015500083819481009709F478C0EB81FC814285F6
:1015600053858A81282F30E0C901880F991F880F81
:10157000991F880F991F821B930BFA01E80FF91F1F
:101580000380F481E02D0995813009F05EC081E08F
:101590008983EB81FC8187819085009731F0EB8115
:1015A000FC810780F085E02D0995EB81FC81428567
:1015B00053858A81282F30E0C901880F991F880F31
:1015C000991F880F991F821B930BFA01E80FF91FCF
:1015D0008281EF81F8858083EF81F8858081882F73
:1015E00090E09C01220F331FC901880F991F880FBB
:1015F000991F880F991FAC01421B530B9A018D81D3
:101600009E81FC01E20FF31F83819481009739F1E1
:10161000EF81F8858081882F90E09C01220F331F95
:10162000C901880F991F880F991F880F991FAC0156
:10163000421B530B9A018D819E81FC01E20FF31F27
:101640000380F481E02D09950AC08A818F5F8A8327
:10165000EB81FC8191858A81891708F466CF8981A5
:10166000882361F4EB81FC8185819681009731F0BC
:10167000EB81FC810580F681E02D099528960FB657
:10168000F894DEBF0FBECDBFCF91DF910895DF93F9
:10169000CF93CDB7DEB7E8970FB6F894DEBF0FBE95
:1016A000CDBF80E090E0A8E4B2E48DAB9EABAFABE1
:1016B000B8AF6DA97EA98FA998AD20E030E04AEFC0
:1016C00054E40E941F02DC01CB0189AB9AABABABA7
:1016D000BCAB69A97AA98BA99CA920E030E040E8BD
:1016E0005FE30E94790388232CF481E090E098ABBB
:1016F0008FA73FC069A97AA98BA99CA920E03FEFD9
:101700004FE757E40E94190318164CF56DA97EA9FE
:101710008FA998AD20E030E040E251E40E941F0222
:10172000DC01CB01BC01CD010E944900DC01CB01F1
:1017300098AB8FA70FC088EC90E09EA78DA78DA5D2
:101740009EA50197F1F79EA78DA78FA598A9019750
:1017500098AB8FA78FA598A9009769F714C069A9BE
:101760007AA98BA99CA90E944900DC01CB0198AB06
:101770008FA78FA598A99CA78BA78BA59CA5019740
:10178000F1F79CA78BA788E390E00E942E0D80E0E4
:1017900090E0A0EAB0E48FA398A7A9A7BAA76FA189
:1017A00078A589A59AA520E030E04AEF54E40E948C
:1017B0001F02DC01CB018BA39CA3ADA3BEA36BA135
:1017C0007CA18DA19EA120E030E040E85FE30E9473
:1017D000790388232CF481E090E09AA389A33FC089
:1017E0006BA17CA18DA19EA120E03FEF4FE757E4C4
:1017F0000E94190318164CF56FA178A589A59AA522
:1018000020E030E040E251E40E941F02DC01CB0105
:10181000BC01CD010E944900DC01CB019AA389A340
:101820000FC088EC90E098A38F8F8F8D98A10197BF
:10183000F1F798A38F8F89A19AA101979AA389A301
:1018400089A19AA1009769F714C06BA17CA18DA111
:101850009EA10E944900DC01CB019AA389A389A122
:101860009AA19E8F8D8F8D8D9E8D0197F1F79E8F02
:101870008D8F8CE090E00E942E0D80E090E0A0EA39
:10188000B0E4898F9A8FAB8FBC8F698D7A8D8B8DE9
:101890009C8D20E030E04AEF54E40E941F02DC01FE
:1018A000CB018D8B9E8BAF8BB88F6D897E898F8995
:1018B000988D20E030E040E85FE30E9479038823C0
:1018C0002CF481E090E09C8B8B8B3FC06D897E89EE
:1018D0008F89988D20E03FEF4FE757E40E9419036E
:1018E00018164CF5698D7A8D8B8D9C8D20E030E03B
:1018F00040E251E40E941F02DC01CB01BC01CD019A
:101900000E944900DC01CB019C8B8B8B0FC088ECC3
:1019100090E09A8B898B89899A890197F1F79A8B44
:10192000898B8B899C8901979C8B8B8B8B899C895C
:10193000009769F714C06D897E898F89988D0E9400
:101940004900DC01CB019C8B8B8B8B899C89988B0C
:101950008F878F8598890197F1F7988B8F8781E022
:1019600090E00E942E0D80E090E0A0EAB0E48B872A
:101970009C87AD87BE876B857C858D859E8520E0A5
:1019800030E04AEF54E40E941F02DC01CB018F8358
:101990009887A987BA876F81788589859A8520E09D
:1019A00030E040E85FE30E94790388232CF481E073
:1019B00090E09E838D833FC06F81788589859A856D
:1019C00020E03FEF4FE757E40E94190318164CF54B
:1019D0006B857C858D859E8520E030E040E251E47A
:1019E0000E941F02DC01CB01BC01CD010E94490015
:1019F000DC01CB019E838D830FC088EC90E09C833B
:101A00008B838B819C810197F1F79C838B838D81E4
:101A10009E8101979E838D838D819E81009769F7BA
:101A200014C06F81788589859A850E944900DC0100
:101A3000CB019E838D838D819E819A838983898149
:101A40009A810197F1F79A838983E8960FB6F89403
:101A5000DEBF0FBECDBFCF91DF910895DF93CF934F
:101A6000CDB7DEB72F970FB6F894DEBF0FBECDBF50
:101A70008F8785E060E00E94C90783E060E00E94F4
:101A8000C90784E060E00E94C90780E06F850E947A
:101A9000400985E061E00E94C90780E090E0A0EA8B
:101AA000B0E48B879C87AD87BE876B857C858D85F1
:101AB0009E8520E030E04AEF54E40E941F02DC01E2
:101AC000CB018F839887A987BA876F8178858985AD
:101AD0009A8520E030E040E85FE30E9479038823A4
:101AE0002CF481E090E09E838D833FC06F817885E8
:101AF00089859A8520E03FEF4FE757E40E9419035C
:101B000018164CF56B857C858D859E8520E030E030
:101B100040E251E40E941F02DC01CB01BC01CD0177
:101B20000E944900DC01CB019E838D830FC088ECAD
:101B300090E09C838B838B819C810197F1F79C8340
:101B40008B838D819E8101979E838D838D819E8164
:101B5000009769F714C06F81788589859A850E94FE
:101B60004900DC01CB019E838D838D819E819A8308
:101B7000898389819A810197F1F79A83898385E026
:101B800060E00E94C9072F960FB6F894DEBF0FBE23
:101B9000CDBFCF91DF910895DF93CF93CDB7DEB75F
:101BA0002F970FB6F894DEBF0FBECDBF8F8785E0AD
:101BB00060E00E94C90783E061E00E94C90784E0F9
:101BC00060E00E94C90780E06F850E94400985E0BF
:101BD00061E00E94C90780E090E0A0EAB0E48B8752
:101BE0009C87AD87BE876B857C858D859E8520E033
:101BF00030E04AEF54E40E941F02DC01CB018F83E6
:101C00009887A987BA876F81788589859A8520E02A
:101C100030E040E85FE30E94790388232CF481E000
:101C200090E09E838D833FC06F81788589859A85FA
:101C300020E03FEF4FE757E40E94190318164CF5D8
:101C40006B857C858D859E8520E030E040E251E407
:101C50000E941F02DC01CB01BC01CD010E944900A2
:101C6000DC01CB019E838D830FC088EC90E09C83C8
:101C70008B838B819C810197F1F79C838B838D8172
:101C80009E8101979E838D838D819E81009769F748
:101C900014C06F81788589859A850E944900DC018E
:101CA000CB019E838D838D819E819A8389838981D7
:101CB0009A810197F1F79A83898385E060E00E9419
:101CC000C9072F960FB6F894DEBF0FBECDBFCF91D8
:101CD000DF910895DF93CF93CDB7DEB7A0970FB60E
:101CE000F894DEBF0FBECDBF98A38F8F9E01235EF9
:101CF0003F4F80E0B9010E9457089E01225E3F4F8E
:101D000081E0B9010E9457088D8D882309F083C0B6
:101D100080E090E0A6E9B3E4898F9A8FAB8FBC8F07
:101D2000698D7A8D8B8D9C8D20E030E04AEF54E4F4
:101D30000E941F02DC01CB018D8B9E8BAF8BB88F75
:101D40006D897E898F89988D20E030E040E85FE3DF
:101D50000E94790388232CF481E090E09C8B8B8B8C
:101D60003FC06D897E898F89988D20E03FEF4FE7D6
:101D700057E40E94190318164CF5698D7A8D8B8DE6
:101D80009C8D20E030E040E251E40E941F02DC0123
:101D9000CB01BC01CD010E944900DC01CB019C8B31
:101DA0008B8B0FC088EC90E09A8B898B89899A89FC
:101DB0000197F1F79A8B898B8B899C8901979C8B72
:101DC0008B8B8B899C89009769F714C06D897E89FC
:101DD0008F89988D0E944900DC01CB019C8B8B8BF5
:101DE0008B899C89988B8F878F8598890197F1F7CC
:101DF000988B8F87EF8DF8A180818F5FEF8DF8A191
:101E00008083EF8DF8A180818A3008F48BC0EF8D3C
:101E1000F8A1108287C08E8D882309F083C080E0EE
:101E200090E0A6E9B3E48B879C87AD87BE876B857E
:101E30007C858D859E8520E030E04AEF54E40E9449
:101E40001F02DC01CB018F839887A987BA876F8136
:101E5000788589859A8520E030E040E85FE30E943C
:101E6000790388232CF481E090E09E838D833FC02A
:101E70006F81788589859A8520E03FEF4FE757E4A9
:101E80000E94190318164CF56B857C858D859E85FF
:101E900020E030E040E251E40E941F02DC01CB016F
:101EA000BC01CD010E944900DC01CB019E838D83E2
:101EB0000FC088EC90E09C838B838B819C81019781
:101EC000F1F79C838B838D819E8101979E838D8307
:101ED0008D819E81009769F714C06F81788589850F
:101EE0009A850E944900DC01CB019E838D838D8100
:101EF0009E819A83898389819A810197F1F79A83D8
:101F00008983EF8DF8A18081882341F0EF8DF8A1BE
:101F100080818150EF8DF8A1808304C0EF8DF8A1FE
:101F200089E08083A0960FB6F894DEBF0FBECDBFC8
:101F3000CF91DF910895DF93CF93CDB7DEB7A3970D
:101F40000FB6F894DEBF0FBECDBF99A388A39E0144
:101F5000225E3F4F80E0B9010E9457089E01215E3A
:101F60003F4F81E0B9010E945708E8A1F9A18081A3
:101F70008D8F8E8D882309F07BC080E090E0A6E9EC
:101F8000B3E4898F9A8FAB8FBC8F698D7A8D8B8DDF
:101F90009C8D20E030E04AEF54E40E941F02DC01F7
:101FA000CB018D8B9E8BAF8BB88F6D897E898F898E
:101FB000988D20E030E040E85FE30E9479038823B9
:101FC0002CF481E090E09C8B8B8B3FC06D897E89E7
:101FD0008F89988D20E03FEF4FE757E40E94190367
:101FE00018164CF5698D7A8D8B8D9C8D20E030E034
:101FF00040E251E40E941F02DC01CB01BC01CD0193
:102000000E944900DC01CB019C8B8B8B0FC088ECBC
:1020100090E09A8B898B89899A890197F1F79A8B3D
:10202000898B8B899C8901979C8B8B8B8B899C8955
:10203000009769F714C06D897E898F89988D0E94F9
:102040004900DC01CB019C8B8B8B8B899C89988B05
:102050008F878F8598890197F1F7988B8F878D8D62
:102060008F5F8D8F8D8D843008F481C01D8E7FC071
:102070008F8D882309F07BC080E090E0A6E9B3E46F
:102080008B879C87AD87BE876B857C858D859E857C
:1020900020E030E04AEF54E40E941F02DC01CB0153
:1020A0008F839887A987BA876F81788589859A8574
:1020B00020E030E040E85FE30E94790388232CF4BD
:1020C00081E090E09E838D833FC06F817885898514
:1020D0009A8520E03FEF4FE757E40E941903181656
:1020E0004CF56B857C858D859E8520E030E040E257
:1020F00051E40E941F02DC01CB01BC01CD010E9412
:102100004900DC01CB019E838D830FC088EC90E0F9
:102110009C838B838B819C810197F1F79C838B83BC
:102120008D819E8101979E838D838D819E810097F5
:1021300069F714C06F81788589859A850E94490066
:10214000DC01CB019E838D838D819E819A8389835F
:1021500089819A810197F1F79A8389838D8D8823EC
:1021600021F08D8D81508D8F02C083E08D8F8D8DFC
:10217000282F30E03BA32AA38AA19BA1813091059F
:10218000C9F02AA13BA1223031052CF48AA19BA1E0
:10219000009761F01DC02AA13BA12230310579F0E2
:1021A0008AA19BA18330910579F012C0E8A1F9A121
:1021B00010820EC0E8A1F9A181E0808309C0E8A1E6
:1021C000F9A182E0808304C0E8A1F9A183E08083C3
:1021D000A3960FB6F894DEBF0FBECDBFCF91DF91AF
:1021E0000895DF93CF9300D000D0CDB7DEB78A83B8
:1021F00080E389838A81282F30E03C832B838B8185
:102200009C8181309105C1F02B813C8122303105C8
:102210002CF48B819C81009761F017C02B813C814D
:102220002230310561F08B819C818330910551F022
:102230000CC08BE289830BC08DE2898308C08AE2DF
:10224000898305C08FE2898302C080E38983898105
:102250000F900F900F900F90CF91DF910895DF9323
:10226000CF93CDB7DEB760970FB6F894DEBF0FBE41
:10227000CDBF1F869E01205F3F4F82E0B9010E94C3
:1022800057088889882309F074C080E090E0A6E9A7
:10229000B3E48B879C87AD87BE876B857C858D85F6
:1022A0009E8520E030E04AEF54E40E941F02DC01EA
:1022B000CB018F839887A987BA876F8178858985B5
:1022C0009A8520E030E040E85FE30E9479038823AC
:1022D0002CF481E090E09E838D833FC06F817885F0
:1022E00089859A8520E03FEF4FE757E40E94190364
:1022F00018164CF56B857C858D859E8520E030E039
:1023000040E251E40E941F02DC01CB01BC01CD017F
:102310000E944900DC01CB019E838D830FC088ECB5
:1023200090E09C838B838B819C810197F1F79C8348
:102330008B838D819E8101979E838D838D819E816C
:10234000009769F714C06F81788589859A850E9406
:102350004900DC01CB019E838D838D819E819A8310
:10236000898389819A810197F1F79A83898381E032
:102370008F878F8560960FB6F894DEBF0FBECDBFF6
:10238000CF91DF910895DF93CF93CDB7DEB7109251
:10239000F00081E00E942E0D8091F000882F90E0E7
:1023A000FC01EB51FF4F80810E94CC0DCF91DF915A
:1023B0000895DF93CF93CDB7DEB76D970FB6F8943E
:1023C000DEBF0FBECDBF8091F0008D8FCE014D9648
:1023D0000E946A0E8D8D8093F00081E00E942E0D88
:1023E00080E090E0A8E4B2E4898F9A8FAB8FBC8F35
:1023F000698D7A8D8B8D9C8D20E030E04AEF54E41E
:102400000E941F02DC01CB018D8B9E8BAF8BB88F9E
:102410006D897E898F89988D20E030E040E85FE308
:102420000E94790388232CF481E090E09C8B8B8BB5
:102430003FC06D897E898F89988D20E03FEF4FE7FF
:1024400057E40E94190318164CF5698D7A8D8B8D0F
:102450009C8D20E030E040E251E40E941F02DC014C
:10246000CB01BC01CD010E944900DC01CB019C8B5A
:102470008B8B0FC088EC90E09A8B898B89899A8925
:102480000197F1F79A8B898B8B899C8901979C8B9B
:102490008B8B8B899C89009769F714C06D897E8925
:1024A0008F89988D0E944900DC01CB019C8B8B8B1E
:1024B0008B899C89988B8F878F8598890197F1F7F5
:1024C000988B8F878091F000882F90E0FC01EB5172
:1024D000FF4F80810E94CC0D80E090E0A8E4B2E440
:1024E0008B879C87AD87BE876B857C858D859E8518
:1024F00020E030E04AEF54E40E941F02DC01CB01EF
:102500008F839887A987BA876F81788589859A850F
:1025100020E030E040E85FE30E94790388232CF458
:1025200081E090E09E838D833FC06F8178858985AF
:102530009A8520E03FEF4FE757E40E9419031816F1
:102540004CF56B857C858D859E8520E030E040E2F2
:1025500051E40E941F02DC01CB01BC01CD010E94AD
:102560004900DC01CB019E838D830FC088EC90E095
:102570009C838B838B819C810197F1F79C838B8358
:102580008D819E8101979E838D838D819E81009791
:1025900069F714C06F81788589859A850E94490002
:1025A000DC01CB019E838D838D819E819A838983FB
:1025B00089819A810197F1F79A8389836D960FB685
:1025C000F894DEBF0FBECDBFCF91DF910895DF93AA
:1025D000CF93CDB7DEB7CF91DF910895DF93CF933F
:1025E000CDB7DEB71092F10081E00E942E0D8091F0
:1025F000F000882F90E0FC01EB51FF4F80810E949A
:10260000CC0D8BE20E94CC0DCF91DF910895DF932A
:10261000CF93CDB7DEB760970FB6F894DEBF0FBE8D
:10262000CDBF8091F100888BCE0140960E949B0F18
:1026300088898093F10081E00E942E0D8091F00046
:10264000882F90E0FC01EB51FF4F80810E94CC0D60
:102650008091F1000E94F1108F878F850E94CC0D30
:1026600080E090E0A8E4B2E48B879C87AD87BE87CA
:102670006B857C858D859E8520E030E04AEF54E4B3
:102680000E941F02DC01CB018F839887A987BA873C
:102690006F81788589859A8520E030E040E85FE3A6
:1026A0000E94790388232CF481E090E09E838D833F
:1026B0003FC06F81788589859A8520E03FEF4FE79D
:1026C00057E40E94190318164CF56B857C858D859F
:1026D0009E8520E030E040E251E40E941F02DC01D0
:1026E000CB01BC01CD010E944900DC01CB019E83DE
:1026F0008D830FC088EC90E09C838B838B819C81C1
:102700000197F1F79C838B838D819E8101979E8336
:102710008D838D819E81009769F714C06F817885C4
:1027200089859A850E944900DC01CB019E838D83B7
:102730008D819E819A83898389819A810197F1F79E
:102740009A83898360960FB6F894DEBF0FBECDBF23
:10275000CF91DF910895DF93CF93CDB7DEB7CF91BF
:10276000DF910895DF93CF930F92CDB7DEB710922C
:10277000F20081E00E942E0D8091F000882F90E001
:10278000FC01EB51FF4F80810E94CC0D8091F10044
:102790000E94F110898389810E94CC0D8091F20002
:1027A000882F90E0FC01EB51FF4F80810E94CC0DFF
:1027B0000F90CF91DF910895DF93CF93CDB7DEB720
:1027C00060970FB6F894DEBF0FBECDBF8091F200C8
:1027D000888BCE0140960E946A0E88898093F20011
:1027E00081E00E942E0D8091F000882F90E0FC0186
:1027F000EB51FF4F80810E94CC0D8091F1000E942F
:10280000F1108F878F850E94CC0D8091F200882F68
:1028100090E0FC01EB51FF4F80810E94CC0D80E0E5
:1028200090E0A8E4B2E48B879C87AD87BE876B8578
:102830007C858D859E8520E030E04AEF54E40E943F
:102840001F02DC01CB018F839887A987BA876F812C
:10285000788589859A8520E030E040E85FE30E9432
:10286000790388232CF481E090E09E838D833FC020
:102870006F81788589859A8520E03FEF4FE757E49F
:102880000E94190318164CF56B857C858D859E85F5
:1028900020E030E040E251E40E941F02DC01CB0165
:1028A000BC01CD010E944900DC01CB019E838D83D8
:1028B0000FC088EC90E09C838B838B819C81019777
:1028C000F1F79C838B838D819E8101979E838D83FD
:1028D0008D819E81009769F714C06F817885898505
:1028E0009A850E944900DC01CB019E838D838D81F6
:1028F0009E819A83898389819A810197F1F79A83CE
:10290000898360960FB6F894DEBF0FBECDBFCF911E
:10291000DF910895DF93CF93CDB7DEB7CF91DF91ED
:102920000895DF93CF93CDB7DEB72F970FB6F89406
:10293000DEBF0FBECDBF81E00E942E0D8091F00062
:10294000882F90E0FC01EB51FF4F80810E94CC0D5D
:102950008091F1000E94F1108F878F850E94CC0D2D
:102960008091F200882F90E0FC01EB51FF4F8081B5
:102970000E94CC0D8DE30E94CC0D80E090E0A8E495
:10298000B2E48B879C87AD87BE876B857C858D8500
:102990009E8520E030E04AEF54E40E941F02DC01F3
:1029A000CB018F839887A987BA876F8178858985BE
:1029B0009A8520E030E040E85FE30E9479038823B5
:1029C0002CF481E090E09E838D833FC06F817885F9
:1029D00089859A8520E03FEF4FE757E40E9419036D
:1029E00018164CF56B857C858D859E8520E030E042
:1029F00040E251E40E941F02DC01CB01BC01CD0189
:102A00000E944900DC01CB019E838D830FC088ECBE
:102A100090E09C838B838B819C810197F1F79C8351
:102A20008B838D819E8101979E838D838D819E8175
:102A3000009769F714C06F81788589859A850E940F
:102A40004900DC01CB019E838D838D819E819A8319
:102A5000898389819A810197F1F79A8389832F96D7
:102A60000FB6F894DEBF0FBECDBFCF91DF910895B2
:102A7000DF93CF93CDB7DEB7A1970FB6F894DEBF43
:102A80000FBECDBF8091F1008E8F8E8D282F30E04C
:102A900039A328A388A199A181309105E1F028A14B
:102AA00039A1223031052CF488A199A1009761F059
:102AB00032C028A139A122303105A1F088A199A105
:102AC00083309105C1F027C08091F0009091F20011
:102AD000890F8F8F22C08091F0009091F200891BA6
:102AE0008F8F1BC08091F0009091F200899F802D04
:102AF00011248F8F12C08091F200882349F08091B9
:102B0000F0009091F200692F0E94E7168F8F05C0A8
:102B10008EE48F8F02C08EE48F8F8F8D8093F300B1
:102B200081E00E942E0D80E090E0A8E4B2E4898F5D
:102B30009A8FAB8FBC8F698D7A8D8B8D9C8D20E0A9
:102B400030E04AEF54E40E941F02DC01CB018D8B80
:102B50009E8BAF8BB88F6D897E898F89988D20E091
:102B600030E040E85FE30E94790388232CF481E0A1
:102B700090E09C8B8B8B3FC06D897E898F89988D6F
:102B800020E03FEF4FE757E40E94190318164CF579
:102B9000698D7A8D8B8D9C8D20E030E040E251E490
:102BA0000E941F02DC01CB01BC01CD010E94490043
:102BB000DC01CB019C8B8B8B0FC088EC90E09A8B57
:102BC000898B89899A890197F1F79A8B898B8B89EF
:102BD0009C8901979C8B8B8B8B899C89009769F7CB
:102BE00014C06D897E898F89988D0E944900DC010F
:102BF000CB019C8B8B8B8B899C89988B8F878F8546
:102C000098890197F1F7988B8F878091F000882F32
:102C100090E0FC01EB51FF4F80810E94CC0D809130
:102C2000F1000E94F1108D8F8D8D0E94CC0D80914E
:102C3000F200882F90E0FC01EB51FF4F80810E9451
:102C4000CC0D8DE30E94CC0D8091F3008E34F1F019
:102C50008091F3009AE0692F0E94E716882F90E098
:102C6000FC01EB51FF4F80810E94CC0D8091F3005D
:102C70009AE0692F0E94E716892F882F90E0FC01C7
:102C8000EB51FF4F80810E94CC0D04C08091F30076
:102C90000E94CC0D80E090E0A8E4B2E48B879C8792
:102CA000AD87BE876B857C858D859E8520E030E075
:102CB0004AEF54E40E941F02DC01CB018F83988706
:102CC000A987BA876F81788589859A8520E030E069
:102CD00040E85FE30E94790388232CF481E090E0D0
:102CE0009E838D833FC06F81788589859A8520E09A
:102CF0003FEF4FE757E40E94190318164CF56B8518
:102D00007C858D859E8520E030E040E251E40E9484
:102D10001F02DC01CB01BC01CD010E944900DC0196
:102D2000CB019E838D830FC088EC90E09C838B83C6
:102D30008B819C810197F1F79C838B838D819E8190
:102D400001979E838D838D819E81009769F714C0C2
:102D50006F81788589859A850E944900DC01CB01C5
:102D60009E838D838D819E819A83898389819A81B7
:102D70000197F1F79A838983A1960FB6F894DEBF85
:102D80000FBECDBFCF91DF910895DF93CF93CDB725
:102D9000DEB7CF91DF910895DF93CF930F92CDB738
:102DA000DEB70E94A3050E94470B84E890E063E031
:102DB00040E09E012F5F3F4F0E94F30984E890E0BE
:102DC0009E012F5F3F4FB9010E946A0AF7CF991BFE
:102DD00079E004C0991F961708F0961B881F7A9512
:102DE000C9F7809508952F923F924F925F926F920C
:102DF0007F928F929F92AF92BF92CF92DF92EF928B
:102E0000FF920F931F93CF93DF93CDB7DEB7CA1B0B
:102E1000DB0B0FB6F894DEBF0FBECDBF09942A8836
:102E2000398848885F846E847D848C849B84AA84DE
:102E3000B984C884DF80EE80FD800C811B81AA816B
:102E4000B981CE0FD11D0FB6F894DEBF0FBECDBF36
:082E5000ED010895F894FFCF95
:102E5800000000000000000055AA012F11AA5555D6
:102E6800AA022F11AA5555AA032F11AA5555AA002F
:102E78002F11AA5555AA00C311D911E712016800EC
:102E8800AA5565AA01EE120713AB13016F00AA56E3
:102E980058AA02B213DC138A14017600AA5958AA58
:102EA8000391143815C516017D00AA5903010701BD
:102EB8000B01530057005B0002FFFF00003B003886
:102EC80000350032003A003700340031003900364E
:102ED800003300300030313233343536373839007A
:00000001FF
