:100000000C942A000C94B5040C9447000C944700FF
:100010000C9447000C9447000C9447000C94470044
:100020000C9447000C9447000C9447000C94470034
:100030000C9447000C9447000C9447000C94470024
:100040000C9447000C9447000C9447000C94470014
:100050000C94470011241FBECFE5D8E0DEBFCDBF12
:1000600010E0A0E6B0E0E0E7FAE002C005900D92F3
:10007000AA38B107D9F710E0AAE8B0E001C01D9294
:10008000AE38B107E1F70E94E8040C9436050C94F1
:100090000000DF93CF93CDB7DEB727970FB6F89464
:1000A000DEBF0FBECDBF1F821F8246C18F81882F4A
:1000B00090E0880F991F805A9F4F9C838B83EB8120
:1000C000FC8180818074882309F496C0EB81FC81D7
:1000D00080818370882F90E0880F991FFC01E7587A
:1000E000FF4FA081B181EB81FC8180818370882FDB
:1000F00090E0880F991FFC01E758FF4F0190F081B5
:10010000E02D8081482FEB81FC818081869586954A
:100110008F70282F30E081E090E0022E02C0880F1F
:10012000991F0A94E2F7842B8C93EB81FC818081E8
:100130008078882381F1EB81FC8180818370882F16
:1001400090E0880F991FFC01EF58FF4FA081B1810B
:10015000EB81FC8180818370882F90E0880F991F4C
:10016000FC01EF58FF4F0190F081E02D8081482F76
:10017000EB81FC818081869586958F70282F30E0F9
:1001800081E090E0022E02C0880F991F0A94E2F7E6
:10019000842B8C93CEC0EB81FC8180818370882F6F
:1001A00090E0880F991FFC01EF58FF4FA081B181AB
:1001B000EB81FC8180818370882F90E0880F991FEC
:1001C000FC01EF58FF4F0190F081E02D8081482F16
:1001D000EB81FC818081869586958F70282F30E099
:1001E00081E090E0022E02C0880F991F0A94E2F786
:1001F000809584238C939DC0EB81FC8180818074E9
:10020000882309F096C0EB81FC8180818370882F60
:1002100090E0880F991FFC01E758FF4FA081B18142
:10022000EB81FC8180818370882F90E0880F991F7B
:10023000FC01E758FF4F0190F081E02D8081482FAD
:10024000EB81FC818081869586958F70282F30E028
:1002500081E090E0022E02C0880F991F0A94E2F715
:10026000809584238C93EB81FC818181817088232C
:1002700081F1EB81FC8180818370882F90E0880F71
:10028000991FFC01EF58FF4FA081B181EB81FC81E8
:1002900080818370882F90E0880F991FFC01EF58B0
:1002A000FF4F0190F081E02D8081482FEB81FC8190
:1002B0008081869586958F70282F30E081E090E0D0
:1002C000022E02C0880F991F0A94E2F7842B8C93A8
:1002D00030C0EB81FC8180818370882F90E0880F93
:1002E000991FFC01EF58FF4FA081B181EB81FC8188
:1002F00080818370882F90E0880F991FFC01EF5850
:10030000FF4F0190F081E02D8081482FEB81FC812F
:100310008081869586958F70282F30E081E090E06F
:10032000022E02C0880F991F0A94E2F78095842359
:100330008C938F818F5F8F838F81863008F4B6CE48
:100340001E821E82BFC08E81282F30E0C901880F17
:10035000991F880F991F820F931F84599F4F9A836B
:100360008983E981FA818081882F90E0880F991F25
:10037000FC01E758FF4FA081B181E981FA819281A8
:10038000E981FA81818189238C931D8294C0E9815E
:10039000FA819281E981FA8181818923282F30E0D5
:1003A0008D81882F90E0A90102C0559547958A95C7
:1003B000E2F7CA0181709070009709F03DC0E981B1
:1003C000FA818081882F90E0880F991FFC01EF58F7
:1003D000FF4FA081B181E981FA818081882F90E06F
:1003E000880F991FFC01EF58FF4F0190F081E02D1D
:1003F0008081482F8D81282F30E081E090E002C07D
:10040000880F991F2A95E2F780954823E981FA81A0
:100410009481E981FA8181818923282F30E08D81BF
:10042000882F90E0B90102C0660F771F8A95E2F726
:10043000CB01842B8C933CC0E981FA818081882F89
:1004400090E0880F991FFC01EF58FF4FA081B18108
:10045000E981FA818081882F90E0880F991FFC0143
:10046000EF58FF4F0190F081E02D8081482F8D8162
:10047000282F30E081E090E002C0880F991F2A9574
:10048000E2F780954823E981FA819381E981FA8135
:1004900081818923282F30E08D81882F90E0B90158
:1004A00002C0660F771F8A95E2F7CB01842B8C93ED
:1004B0008D818F5F8D838D81883008F468CF8E8128
:1004C0008F5F8E838E81882309F43DCF27960FB6E8
:1004D000F894DEBF0FBECDBFCF91DF910895DF93BB
:1004E000CF9300D000D00F92CDB7DEB78C836D8351
:1004F0008C81863018F081E08B8376C08D818130CD
:1005000031F08D81882319F082E08B836DC08C815E
:10051000882F90E0880F991F805A9F4F9A83898374
:100520008D81813081F5E981FA8180818370882F06
:1005300090E0880F991FFC01EF58FF4FA081B18117
:10054000E981FA8180818370882F90E0880F991F5C
:10055000FC01EF58FF4F0190F081E02D8081482F82
:10056000E981FA818081869586958F70282F30E009
:1005700081E090E0022E02C0880F991F0A94E2F7F2
:10058000842B8C9330C0E981FA8180818370882F1D
:1005900090E0880F991FFC01EF58FF4FA081B181B7
:1005A000E981FA8180818370882F90E0880F991FFC
:1005B000FC01EF58FF4F0190F081E02D8081482F22
:1005C000E981FA818081869586958F70282F30E0A9
:1005D00081E090E0022E02C0880F991F0A94E2F792
:1005E000809584238C931B828B810F900F900F90AA
:1005F0000F900F90CF91DF910895DF93CF93CDB7F8
:10060000DEB727970FB6F894DEBF0FBECDBF8D8340
:100610007F836E838D81863018F081E08C833EC0AD
:100620008E819F81009719F483E08C8337C08D8180
:10063000882F90E0880F991F805A9F4F9B838A8351
:10064000EA81FB8180818370882F90E0880F991F59
:10065000FC01EF57FF4F0190F081E02D8081282FA2
:1006600030E0EA81FB818081869586958F70882FA6
:1006700090E0A90102C0559547958A95E2F7CA0115
:10068000817089838981882321F4EE81FF81108222
:1006900004C0EE81FF8181E080831C828C812796DB
:1006A0000FB6F894DEBF0FBECDBFCF91DF91089596
:1006B000DF93CF9300D000D00F92CDB7DEB78C83FD
:1006C0006D838C81863018F081E08B8376C08D81BC
:1006D000882331F08D81813019F082E08B836DC0E9
:1006E0008C81882F90E0880F991F805A9F4F9A83A2
:1006F00089838D81813081F5E981FA8180818370E0
:10070000882F90E0880F991FFC01E758FF4FA081C8
:10071000B181E981FA8180818370882F90E0880F10
:10072000991FFC01E758FF4F0190F081E02D808177
:10073000482FE981FA818081869586958F70282FD0
:1007400030E081E090E0022E02C0880F991F0A94E9
:10075000E2F7842B8C9330C0E981FA818081837029
:10076000882F90E0880F991FFC01E758FF4FA08168
:10077000B181E981FA8180818370882F90E0880FB0
:10078000991FFC01E758FF4F0190F081E02D808117
:10079000482FE981FA818081869586958F70282F70
:1007A00030E081E090E0022E02C0880F991F0A9489
:1007B000E2F7809584238C931B828B810F900F909E
:1007C0000F900F900F90CF91DF910895DF93CF930B
:1007D00000D000D00F92CDB7DEB78C836D838C81B3
:1007E000882319F081E08B8321C08C81282F30E091
:1007F000C901880F991F880F991F820F931F845971
:100800009F4F9A838983E981FA818081882F90E0C4
:10081000880F991FFC01EF58FF4FA081B181E9813A
:10082000FA8191818D8189238C931B828B810F901A
:100830000F900F900F900F90CF91DF910895DF935D
:10084000CF9300D000D000D0CDB7DEB78C837E83AD
:100850006D838C81882319F081E08B8327C08D8183
:100860009E81009719F483E08B8320C08C81282F10
:1008700030E0C901880F991F880F991F820F931FBD
:1008800084599F4F9A838983E981FA818081882FD7
:1008900090E0880F991FFC01EF57FF4F0190F08106
:1008A000E02D8081ED81FE8180831B828B812696E5
:1008B0000FB6F894DEBF0FBECDBFCF91DF91089584
:1008C000DF93CF9300D000D00F92CDB7DEB78C83EB
:1008D0006D838C81882319F081E08B8321C08C810A
:1008E000282F30E0C901880F991F880F991F820FA8
:1008F000931F84599F4F9A838983E981FA8180816C
:10090000882F90E0880F991FFC01E758FF4FA081C6
:10091000B181E981FA8191818D8189238C931B8238
:100920008B810F900F900F900F900F90CF91DF91D0
:100930000895DF93CF93CDB7DEB780918B008F5FA3
:1009400080938B0080918B00823060F080918A00D0
:10095000813019F410928A0003C081E080938A00EC
:1009600010928B00CF91DF9108951F920F920FB6D6
:100970000F9211242F933F934F935F936F937F9325
:100980008F939F93AF93BF93EF93FF93DF93CF9397
:10099000CDB7DEB780918C0090918D00009729F043
:1009A000E0918C00F0918D000995CF91DF91FF913E
:1009B000EF91BF91AF919F918F917F916F915F91D7
:1009C0004F913F912F910F900FBE0F901F90189550
:1009D000DF93CF930F92CDB7DEB789E994E0909380
:1009E0008D0080938C000E944900A5E5B0E0E5E50C
:1009F000F0E080818E7F8C93A5E5B0E0E5E5F0E046
:100A0000808182608C93ABE5B0E0EBE5F0E0808123
:100A100080648C93AAE5B0E0EAE5F0E08081806430
:100A20008C93AFE5B0E0EFE5F0E0808180688C93D7
:100A3000AFE5B0E0EFE5F0E080818F778C938091B7
:100A40008A008983AFE5B0E0EFE5F0E0808180685F
:100A50008C938981813029F483E061E00E946F02E8
:100A6000E7CF83E060E00E946F02E2CFF894FFCF0F
:100A7000030107010B01530057005B0002FFFF0059
:100A8000003B003800350032003A003700340031B6
:0A0A9000003900360033003000008A
:00000001FF
