:100000000C942A000C943F000C943F000C943F0089
:100010000C943F000C943F000C943F000C943F0064
:100020000C943F000C943F000C943F000C943F0054
:100030000C943F000C943F000C943F000C943F0044
:100040000C943F000C943F000C943F000C943F0034
:100050000C943F0011241FBECFE5D8E0DEBFCDBF1A
:1000600010E0A0E6B0E0E4E9F8E002C005900D92EF
:10007000AC38B107D9F70E942B040C9448040C94B7
:100080000000DF93CF93CDB7DEB727970FB6F89474
:10009000DEBF0FBECDBF1F821F8246C18F81882F5A
:1000A00090E0880F991F805A9F4F9D838C83EC812D
:1000B000FD8180818074882309F496C0EC81FD81E4
:1000C00080818370882F90E0880F991FFC01E4588D
:1000D000FF4FA081B181EC81FD8180818370882FE9
:1000E00090E0880F991FFC01E458FF4F0190F081C8
:1000F000E02D8081482FEC81FD8180818695869559
:100100008F70282F30E081E090E0022E02C0880F2F
:10011000991F0A94E2F7842B8C93EC81FD818081F6
:100120008078882381F1EC81FD8180818370882F24
:1001300090E0880F991FFC01EC58FF4FA081B1811E
:10014000EC81FD8180818370882F90E0880F991F5A
:10015000FC01EC58FF4F0190F081E02D8081482F89
:10016000EC81FD818081869586958F70282F30E007
:1001700081E090E0022E02C0880F991F0A94E2F7F6
:10018000842B8C93CEC0EC81FD8180818370882F7D
:1001900090E0880F991FFC01EC58FF4FA081B181BE
:1001A000EC81FD8180818370882F90E0880F991FFA
:1001B000FC01EC58FF4F0190F081E02D8081482F29
:1001C000EC81FD818081869586958F70282F30E0A7
:1001D00081E090E0022E02C0880F991F0A94E2F796
:1001E000809584238C939DC0EC81FD8180818074F7
:1001F000882309F096C0EC81FD8180818370882F6F
:1002000090E0880F991FFC01E458FF4FA081B18155
:10021000EC81FD8180818370882F90E0880F991F89
:10022000FC01E458FF4F0190F081E02D8081482FC0
:10023000EC81FD818081869586958F70282F30E036
:1002400081E090E0022E02C0880F991F0A94E2F725
:10025000809584238C93EC81FD818181817088233A
:1002600081F1EC81FD8180818370882F90E0880F7F
:10027000991FFC01EC58FF4FA081B181EC81FD81F9
:1002800080818370882F90E0880F991FFC01EC58C3
:10029000FF4F0190F081E02D8081482FEC81FD819E
:1002A0008081869586958F70282F30E081E090E0E0
:1002B000022E02C0880F991F0A94E2F7842B8C93B8
:1002C00030C0EC81FD8180818370882F90E0880FA1
:1002D000991FFC01EC58FF4FA081B181EC81FD8199
:1002E00080818370882F90E0880F991FFC01EC5863
:1002F000FF4F0190F081E02D8081482FEC81FD813E
:100300008081869586958F70282F30E081E090E07F
:10031000022E02C0880F991F0A94E2F78095842369
:100320008C938F818F5F8F838F81853008F4B6CE59
:100330001E821E8259C08E81282F30E0C901880F8D
:10034000991F880F991F820F931F86599F4F9B8378
:100350008A83EA81FB818081882F90E0880F991F32
:10036000FC01E458FF4FA081B181EA81FB819281B9
:10037000EA81FB81818189238C93198219822EC0A5
:10038000EA81FB819281EA81FB8181818923282F87
:1003900030E08981882F90E0A90102C055954795EA
:1003A0008A95E2F7CA01817090708823A1F0EA81F2
:1003B000FB818081882F90E0880F991FFC01EC5809
:1003C000FF4FA081B181EA81FB819381EA81FB81AA
:1003D000818189238C9389818F5F8983898188308A
:1003E00078F28E818F5F8E838E81823008F4A3CF66
:1003F00027960FB6F894DEBF0FBECDBFCF91DF9129
:100400000895DF93CF9300D000D00F92CDB7DEB721
:100410008C836D838C81853018F081E08B8376C06E
:100420008D81813031F08D81882319F082E08B83BA
:100430006DC08C81882F90E0880F991F805A9F4F44
:100440009A8389838D81813081F5E981FA81808168
:100450008370882F90E0880F991FFC01EC58FF4FA4
:10046000A081B181E981FA8180818370882F90E039
:10047000880F991FFC01EC58FF4F0190F081E02D8F
:100480008081482FE981FA818081869586958F70D9
:10049000282F30E081E090E0022E02C0880F991FE3
:1004A0000A94E2F7842B8C9330C0E981FA81808131
:1004B0008370882F90E0880F991FFC01EC58FF4F44
:1004C000A081B181E981FA8180818370882F90E0D9
:1004D000880F991FFC01EC58FF4F0190F081E02D2F
:1004E0008081482FE981FA818081869586958F7079
:1004F000282F30E081E090E0022E02C0880F991F83
:100500000A94E2F7809584238C931B828B810F9051
:100510000F900F900F900F90CF91DF910895DF9380
:10052000CF93CDB7DEB727970FB6F894DEBF0FBED7
:10053000CDBF8D837F836E838D81853018F081E000
:100540008C833EC08E819F81009719F483E08C8359
:1005500037C08D81882F90E0880F991F805A9F4F58
:100560009B838A83EA81FB8180818370882F90E05E
:10057000880F991FFC01EC57FF4F0190F081E02D8F
:100580008081282F30E0EA81FB81808186958695E5
:100590008F70882F90E0A90102C0559547958A95E4
:1005A000E2F7CA01817089838981882321F4EE8171
:1005B000FF81108204C0EE81FF8181E080831C8274
:1005C0008C8127960FB6F894DEBF0FBECDBFCF91BA
:1005D000DF910895DF93CF9300D000D00F92CDB775
:1005E000DEB78C836D838C81853018F081E08B833E
:1005F00076C08D81882331F08D81813019F082E0C1
:100600008B836DC08C81882F90E0880F991F805A52
:100610009F4F9A8389838D81813081F5E981FA81A9
:1006200080818370882F90E0880F991FFC01E45827
:10063000FF4FA081B181E981FA8180818370882F89
:1006400090E0880F991FFC01E458FF4F0190F08162
:10065000E02D8081482FE981FA81808186958695F9
:100660008F70282F30E081E090E0022E02C0880FCA
:10067000991F0A94E2F7842B8C9330C0E981FA81A8
:1006800080818370882F90E0880F991FFC01E458C7
:10069000FF4FA081B181E981FA8180818370882F29
:1006A00090E0880F991FFC01E458FF4F0190F08102
:1006B000E02D8081482FE981FA8180818695869599
:1006C0008F70282F30E081E090E0022E02C0880F6A
:1006D000991F0A94E2F7809584238C931B828B8167
:1006E0000F900F900F900F900F90CF91DF91089582
:1006F000DF93CF9300D000D00F92CDB7DEB78C83BD
:100700006D838C81823018F081E08B8321C08C81D5
:10071000282F30E0C901880F991F880F991F820F79
:10072000931F86599F4F9A838983E981FA8180813B
:10073000882F90E0880F991FFC01EC58FF4FA08193
:10074000B181E981FA8191818D8189238C931B820A
:100750008B810F900F900F900F900F90CF91DF91A2
:100760000895DF93CF9300D000D000D0CDB7DEB78F
:100770008C837E836D838C81823018F081E08B8343
:1007800027C08D819E81009719F483E08B8320C060
:100790008C81282F30E0C901880F991F880F991F7D
:1007A000820F931F86599F4F9A838983E981FA812B
:1007B0008081882F90E0880F991FFC01EC57FF4F34
:1007C0000190F081E02D8081ED81FE8180831B828C
:1007D0008B8126960FB6F894DEBF0FBECDBFCF91AA
:1007E000DF910895DF93CF9300D000D00F92CDB763
:1007F000DEB78C836D838C81823018F081E08B832F
:1008000021C08C81282F30E0C901880F991F880FE3
:10081000991F820F931F86599F4F9A838983E9817D
:10082000FA818081882F90E0880F991FFC01E4589D
:10083000FF4FA081B181E981FA8191818D81892366
:100840008C931B828B810F900F900F900F900F90C5
:10085000CF91DF910895DF93CF9300D000D0CDB733
:10086000DEB70E9441001B821C829E012C5F3F4F1D
:1008700081E0B9010E94B1038C8181708A838C81EF
:1008800086958170898380E06A810E947803ECCF2D
:04089000F894FFCF0A
:10089400C00044004800030107010007FF010003F2
:1008A400030003033B003800350032003A003700F0
:0C08B40034003100390036003300300001
:00000001FF
