:100000000C942A000C9447000C9447000C94470071
:100010000C9447000C9447000C9447000C94470044
:100020000C9447000C9447000C9447000C94470034
:100030000C9447000C9447000C9447000C94470024
:100040000C9447000C9447000C9447000C94470014
:100050000C94470011241FBECFE5D8E0DEBFCDBF12
:1000600010E0A0E6B0E0EEE7FDE102C005900D92E1
:10007000A03AB107D9F710E0A0EAB0E001C01D92A4
:10008000A43AB107E1F70E94AA0B0C94BD0E0C94A0
:100090000000EF92FF920F931F937B018C0120E0F1
:1000A00030E040E05FE40E94490388238CF0C801FF
:1000B000B70120E030E040E05FE40E94C1010E940F
:1000C000A9039B01AC01205030404040504806C07D
:1000D000C801B7010E94A9039B01AC01B901CA0183
:1000E0001F910F91FF90EF900895A0E0B0E0EBE733
:1000F000F0E00C94860EDC012B01FA019C91923009
:1001000008F439C1EB018881823008F433C194309E
:1001100069F4843009F02FC111969C91119789815F
:10012000981709F428C1A0E6B0E025C1843009F48D
:1001300021C18230A9F4923009F01DC19A01AD01AC
:1001400088E0EA010990AE01E90109929E0181501F
:10015000C1F7E201898111969C918923818308C1AD
:10016000923009F407C112962D903C901397EB0141
:100170008A819B811496AD90BD90CD90DC901797AD
:10018000EC80FD800E811F819101281B390BB90184
:1001900037FF04C066277727621B730B6032710537
:1001A0000CF061C0121613066CF537014801062EDB
:1001B00004C096948794779467940A94D2F721E0C8
:1001C00030E040E050E004C0220F331F441F551FB1
:1001D0006A95D2F721503040404050402E213F21B7
:1001E00040235123211531054105510521F021E01E
:1001F00030E040E050E079018A01E628F72808293C
:1002000019293CC0232BD1F1260E371E350146019A
:10021000062E04C096948794779467940A94D2F734
:1002200021E030E040E050E004C0220F331F441FC3
:10023000551F6A95D2F721503040404050402A2146
:100240003B214C215D21211531054105510521F04E
:1002500021E030E040E050E059016A01A628B728CB
:10026000C828D9280BC0821593052CF01C01AA249C
:10027000BB24650103C0EE24FF24870111969C91E5
:10028000D20111968C91981709F445C0992339F041
:10029000A80197012A193B094C095D0906C0A6016E
:1002A00095012E193F09400B510B57FD08C01182D3
:1002B0003382228224833583468357831DC081E0A5
:1002C00081833382228288279927DC01821B930B4A
:1002D000A40BB50B84839583A683B7830DC0220F2F
:1002E000331F441F551F24833583468357838281E0
:1002F000938101979383828324813581468157813D
:10030000DA01C9010197A109B1098F5F9F4FAF4F72
:10031000BF4328F30BC0918333822282EA0CFB1C7B
:100320000C1D1D1DE482F5820683178383E0808304
:10033000248135814681578157FF1AC0C901AA27F8
:1003400097FDA095BA2F81709070A070B0705695EF
:10035000479537952795822B932BA42BB52B848318
:100360009583A683B7838281938101969383828349
:10037000DF0101C0D201CD01CDB7DEB7E2E10C94BF
:10038000A20EA0E2B0E0E7ECF1E00C94920E6983DB
:100390007A838B839C832D833E834F835887E9E048
:1003A000EE2EF12CEC0EFD1ECE010196B7010E943F
:1003B000D2048E010F5E1F4FCE010596B8010E9438
:1003C000D2048A8991E089278A8BC701B801AE01DE
:1003D000475E5F4F0E9475000E94FD03A096E6E015
:1003E0000C94AE0EA0E2B0E0E8EFF1E00C94920EB7
:1003F00069837A838B839C832D833E834F835887C5
:10040000F9E0EF2EF12CEC0EFD1ECE010196B701A6
:100410000E94D2048E010F5E1F4FCE010596B801D7
:100420000E94D204C701B801AE01475E5F4F0E942F
:1004300075000E94FD03A096E6E00C94AE0EA0E2CB
:10044000B0E0E5E2F2E00C94860E69837A838B8358
:100450009C832D833E834F835887CE010196BE0136
:10046000675F7F4F0E94D204CE010596BE016F5E8A
:100470007F4F0E94D2049985923088F0898982301A
:10048000C8F0943019F4823051F404C0843029F457
:10049000923081F480E690E0C6C0923049F420E0CA
:1004A0009A858A89981321E02A87CE010996BBC0D4
:1004B000823049F420E09A858A89981321E02A8BBA
:1004C000CE014196B0C02D843E844F8458886D88FB
:1004D0007E888F88988CEE24FF248701AA24BB2471
:1004E000650140E050E060E070E0E0E0F0E0C10174
:1004F00081709070892BE9F0E60CF71C081D191D1E
:100500009A01AB012A0D3B1D4C1D5D1D80E090E062
:10051000A0E0B0E0E614F7040805190520F481E036
:1005200090E0A0E0B0E0BA01A901480F591F6A1F8E
:100530007B1FAA0CBB1CCC1CDD1C97FE08C081E0F5
:1005400090E0A0E0B0E0A82AB92ACA2ADB2A3196B6
:10055000E032F10549F0660C771C881C991C569412
:10056000479437942794C3CFFA85EA892B893C892D
:100570008B859C85280F391F2E5F3F4F17C0CA01FE
:1005800081709070892B61F016950795F794E79428
:1005900080E090E0A0E0B0E8E82AF92A0A2B1B2BC3
:1005A00076956795579547952F5F3F4F77FDE7CF36
:1005B0000CC0440F551F661F771F17FD4160EE0CDE
:1005C000FF1C001F111F21503040403090E05907A0
:1005D00090E0690790E4790760F32B8F3C8FDB0193
:1005E000CA018F779070A070B07080349105A1051A
:1005F000B10561F447FD0AC0E114F10401051105DC
:1006000029F0405C5F4F6F4F7F4F40781A8EFE1786
:1006100011F081E08A8F4D8F5E8F6F8F78A383E01A
:10062000898FCE0149960E94FD03A096E2E10C94C9
:10063000A20EA8E1B0E0EFE1F3E00C94920E698322
:100640007A838B839C832D833E834F83588789E0F5
:10065000E82EF12CEC0EFD1ECE010196B7010E9492
:10066000D2048E010F5E1F4FCE010596B8010E9485
:10067000D2048985823040F08989823028F0C70110
:10068000B8010E944A0501C08FEF6896E6E00C941D
:10069000AE0EA8E1B0E0EFE4F3E00C94920E6983B3
:1006A0007A838B839C832D833E834F83588789E095
:1006B000E82EF12CEC0EFD1ECE010196B7010E9432
:1006C000D2048E010F5E1F4FCE010596B8010E9425
:1006D000D2048985823040F08989823028F0C701B0
:1006E000B8010E944A0501C08FEF6896E6E00C94BD
:1006F000AE0EA8E1B0E0EFE7F3E00C94920E698350
:100700007A838B839C832D833E834F83588789E034
:10071000E82EF12CEC0EFD1ECE010196B7010E94D1
:10072000D2048E010F5E1F4FCE010596B8010E94C4
:10073000D2048985823040F08989823028F0C7014F
:10074000B8010E944A0501C081E06896E6E00C9479
:10075000AE0EACE0B0E0EFEAF3E00C94960E6983E5
:100760007A838B839C83CE010196BE016B5F7F4FA2
:100770000E94D2048D81823061F1823050F1843048
:1007800021F48E81882351F12EC02F81388537FDC9
:1007900020C06E812F3131051CF06623F9F023C093
:1007A0008EE190E0821B930B29853A854B855C8511
:1007B00004C056954795379527958A95D2F76623B5
:1007C000B1F050954095309521953F4F4F4F5F4F79
:1007D0000EC020E030E040E050E009C02FEF3FEFD6
:1007E0004FEF5FE704C020E030E040E050E8B9019F
:1007F000CA012C96E2E00C94B20EDF92EF92FF92C7
:100800000F931F93FC01E480F58006811781D1804E
:100810008081823048F480E090E0A0E1B0E0E82AF6
:10082000F92A0A2B1B2BA5C0843009F49FC0823003
:1008300021F4EE24FF24870105C0E114F104010531
:10084000110519F4E0E0F0E096C0628173819FEF3A
:10085000623879070CF05BC022E83FEF261B370BAC
:100860002A3131052CF020E030E040E050E02AC091
:10087000B801A701022E04C0769567955795479554
:100880000A94D2F781E090E0A0E0B0E004C0880FC5
:10089000991FAA1FBB1F2A95D2F70197A109B10979
:1008A0008E219F21A023B1230097A105B10521F03E
:1008B00081E090E0A0E0B0E09A01AB01282B392B59
:1008C0004A2B5B2BDA01C9018F779070A070B07052
:1008D00080349105A105B10539F427FF09C0205CDA
:1008E0003F4F4F4F5F4F04C0215C3F4F4F4F5F4F13
:1008F000E0E0F0E02030A0E03A07A0E04A07A0E402
:100900005A0710F0E1E0F0E079018A0127C0603871
:10091000710564F5FB01E158FF4FD801C7018F77DE
:100920009070A070B07080349105A105B10539F4C4
:10093000E7FE0DC080E490E0A0E0B0E004C08FE3EB
:1009400090E0A0E0B0E0E80EF91E0A1F1B1F17FFA1
:1009500005C016950795F794E794319687E01695AC
:100960000795F794E7948A95D1F705C0EE24FF2404
:100970008701EFEFF0E06E2F679566276795902F60
:100980009F77D794DD24D7948E2F8695492F462BB9
:10099000582F5D29B701CA011F910F91FF90EF9069
:1009A000DF900895FC01DB01408151812281622F9B
:1009B0006F7770E0221F2227221F9381892F880FD3
:1009C000822B282F30E0991F9927991F11969C930D
:1009D000119721153105A9F54115510561057105DD
:1009E00011F482E037C082E89FEF13969C938E93B8
:1009F00012979A01AB0167E0220F331F441F551F66
:100A00006A95D1F783E08C930DC0220F331F441FEA
:100A1000551F12968D919C911397019713969C9355
:100A20008E931297203080E0380780E0480780E4FA
:100A3000580758F314962D933D934D935C93179755
:100A400008952F3F310579F4411551056105710570
:100A500019F484E08C93089564FF03C081E08C93C3
:100A600012C01C9210C02F57304013963C932E9307
:100A7000129783E08C9387E0440F551F661F771F02
:100A80008A95D1F7706414964D935D936D937C9322
:100A9000179708951F93DC01FB019C91923008F495
:100AA00047C08081823008F443C0943051F41196DD
:100AB0001C91843099F58181682F70E0611B710968
:100AC0003FC0843021F0923031F48230B9F181811D
:100AD000882389F12DC011961C9111978230F1F075
:100AE00081811817D9F412962D913C911397828128
:100AF00093818217930794F028173907BCF0149656
:100B00008D919D910D90BC91A02D248135814681C0
:100B10005781281739074A075B0718F4112341F05A
:100B20000AC082179307A407B50740F4112319F0F0
:100B300061E070E005C06FEF7FEF02C060E070E041
:100B4000CB011F910895DF93CF93CDB7DEB72797E1
:100B50000FB6F894DEBF0FBECDBF1F821F8246C105
:100B60008F81882F90E0880F991F88599F4F9C8311
:100B70008B83EB81FC8180818074882309F496C08B
:100B8000EB81FC8180818370882F90E0880F991F12
:100B9000FC01E358FF4FA081B181EB81FC81808192
:100BA0008370882F90E0880F991FFC01E358FF4F56
:100BB0000190F081E02D8081482FEB81FC818081C4
:100BC000869586958F70282F30E081E090E0022E88
:100BD00002C0880F991F0A94E2F7842B8C93EB8153
:100BE000FC8180818078882381F1EB81FC81808188
:100BF0008370882F90E0880F991FFC01EB58FF4FFE
:100C0000A081B181EB81FC8180818370882F90E08D
:100C1000880F991FFC01EB58FF4F0190F081E02DE8
:100C20008081482FEB81FC818081869586958F702D
:100C3000282F30E081E090E0022E02C0880F991F3B
:100C40000A94E2F7842B8C93CEC0EB81FC818081E7
:100C50008370882F90E0880F991FFC01EB58FF4F9D
:100C6000A081B181EB81FC8180818370882F90E02D
:100C7000880F991FFC01EB58FF4F0190F081E02D88
:100C80008081482FEB81FC818081869586958F70CD
:100C9000282F30E081E090E0022E02C0880F991FDB
:100CA0000A94E2F7809584238C939DC0EB81FC81AC
:100CB00080818074882309F096C0EB81FC8180815B
:100CC0008370882F90E0880F991FFC01E358FF4F35
:100CD000A081B181EB81FC8180818370882F90E0BD
:100CE000880F991FFC01E358FF4F0190F081E02D20
:100CF0008081482FEB81FC818081869586958F705D
:100D0000282F30E081E090E0022E02C0880F991F6A
:100D10000A94E2F7809584238C93EB81FC81818196
:100D20008170882381F1EB81FC8180818370882F21
:100D300090E0880F991FFC01EB58FF4FA081B18113
:100D4000EB81FC8180818370882F90E0880F991F50
:100D5000FC01EB58FF4F0190F081E02D8081482F7E
:100D6000EB81FC818081869586958F70282F30E0FD
:100D700081E090E0022E02C0880F991F0A94E2F7EA
:100D8000842B8C9330C0EB81FC8180818370882F11
:100D900090E0880F991FFC01EB58FF4FA081B181B3
:100DA000EB81FC8180818370882F90E0880F991FF0
:100DB000FC01EB58FF4F0190F081E02D8081482F1E
:100DC000EB81FC818081869586958F70282F30E09D
:100DD00081E090E0022E02C0880F991F0A94E2F78A
:100DE000809584238C938F818F5F8F838F81843054
:100DF00008F4B6CE1E821E82BFC08E81282F30E03E
:100E0000C901880F991F880F991F820F931F80595E
:100E10009F4F9A838983E981FA818081882F90E0AE
:100E2000880F991FFC01E358FF4FA081B181E98130
:100E3000FA819281E981FA81818189238C931D82D3
:100E400094C0E981FA819281E981FA8181818923C3
:100E5000282F30E08D81882F90E0A90102C05595A0
:100E600047958A95E2F7CA0181709070009709F062
:100E70003DC0E981FA818081882F90E0880F991F19
:100E8000FC01EB58FF4FA081B181E981FA8180819B
:100E9000882F90E0880F991FFC01EB58FF4F0190BD
:100EA000F081E02D8081482F8D81282F30E081E076
:100EB00090E002C0880F991F2A95E2F78095482399
:100EC000E981FA819481E981FA8181818923282F3E
:100ED00030E08D81882F90E0B90102C0660F771F46
:100EE0008A95E2F7CB01842B8C933CC0E981FA818F
:100EF0008081882F90E0880F991FFC01EB58FF4FED
:100F0000A081B181E981FA818081882F90E0880FEA
:100F1000991FFC01EB58FF4F0190F081E02D80817B
:100F2000482F8D81282F30E081E090E002C0880FAB
:100F3000991F2A95E2F780954823E981FA819381E8
:100F4000E981FA8181818923282F30E08D81882FE2
:100F500090E0B90102C0660F771F8A95E2F7CB01D6
:100F6000842B8C938D818F5F8D838D81883008F4E5
:100F700068CF8E818F5F8E838E81882309F43DCF69
:100F800027960FB6F894DEBF0FBECDBFCF91DF918D
:100F90000895DF93CF9300D000D00F92CDB7DEB786
:100FA0008C836D838C81843018F081E08B8376C0D4
:100FB0008D81813031F08D81882319F082E08B831F
:100FC0006DC08C81882F90E0880F991F88599F4FA2
:100FD0009A8389838D81813081F5E981FA818081CD
:100FE0008370882F90E0880F991FFC01EB58FF4F0A
:100FF000A081B181E981FA8180818370882F90E09E
:10100000880F991FFC01EB58FF4F0190F081E02DF4
:101010008081482FE981FA818081869586958F703D
:10102000282F30E081E090E0022E02C0880F991F47
:101030000A94E2F7842B8C9330C0E981FA81808195
:101040008370882F90E0880F991FFC01EB58FF4FA9
:10105000A081B181E981FA8180818370882F90E03D
:10106000880F991FFC01EB58FF4F0190F081E02D94
:101070008081482FE981FA818081869586958F70DD
:10108000282F30E081E090E0022E02C0880F991FE7
:101090000A94E2F7809584238C931B828B810F90B6
:1010A0000F900F900F900F90CF91DF910895DF93E5
:1010B000CF93CDB7DEB727970FB6F894DEBF0FBE3C
:1010C000CDBF8D837F836E838D81843018F081E066
:1010D0008C833EC08E819F81009719F483E08C83BE
:1010E00037C08D81882F90E0880F991F88599F4FB6
:1010F0009B838A83EA81FB8180818370882F90E0C3
:10110000880F991FFC01EB57FF4F0190F081E02DF4
:101110008081282F30E0EA81FB8180818695869549
:101120008F70882F90E0A90102C0559547958A9548
:10113000E2F7CA01817089838981882321F4EE81D5
:10114000FF81108204C0EE81FF8181E080831C82D8
:101150008C8127960FB6F894DEBF0FBECDBFCF911E
:10116000DF910895DF93CF9300D000D00F92CDB7D9
:10117000DEB78C836D838C81843018F081E08B83A3
:1011800076C08D81882331F08D81813019F082E025
:101190008B836DC08C81882F90E0880F991F8859B0
:1011A0009F4F9A8389838D81813081F5E981FA810E
:1011B00080818370882F90E0880F991FFC01E3588D
:1011C000FF4FA081B181E981FA8180818370882FEE
:1011D00090E0880F991FFC01E358FF4F0190F081C8
:1011E000E02D8081482FE981FA818081869586955E
:1011F0008F70282F30E081E090E0022E02C0880F2F
:10120000991F0A94E2F7842B8C9330C0E981FA810C
:1012100080818370882F90E0880F991FFC01E3582C
:10122000FF4FA081B181E981FA8180818370882F8D
:1012300090E0880F991FFC01E358FF4F0190F08167
:10124000E02D8081482FE981FA81808186958695FD
:101250008F70282F30E081E090E0022E02C0880FCE
:10126000991F0A94E2F7809584238C931B828B81CB
:101270000F900F900F900F900F90CF91DF910895E6
:10128000DF93CF9300D000D00F92CDB7DEB78C8321
:101290006D838C81882319F081E08B8321C08C8140
:1012A000282F30E0C901880F991F880F991F820FDE
:1012B000931F80599F4F9A838983E981FA818081A6
:1012C000882F90E0880F991FFC01EB58FF4FA081F9
:1012D000B181E981FA8191818D8189238C931B826F
:1012E0008B810F900F900F900F900F90CF91DF9107
:1012F0000895DF93CF9300D000D000D0CDB7DEB7F4
:101300008C837E836D838C81882319F081E08B83AD
:1013100027C08D819E81009719F483E08B8320C0C4
:101320008C81282F30E0C901880F991F880F991FE1
:10133000820F931F80599F4F9A838983E981FA8195
:101340008081882F90E0880F991FFC01EB57FF4F99
:101350000190F081E02D8081ED81FE8180831B82F0
:101360008B8126960FB6F894DEBF0FBECDBFCF910E
:10137000DF910895DF93CF9300D000D00F92CDB7C7
:10138000DEB78C836D838C81882319F081E08B8399
:1013900021C08C81282F30E0C901880F991F880F48
:1013A000991F820F931F80599F4F9A838983E981E8
:1013B000FA818081882F90E0880F991FFC01E35803
:1013C000FF4FA081B181E981FA8191818D818923CB
:1013D0008C931B828B810F900F900F900F900F902A
:1013E000CF91DF910895DF93CF9300D00F92CDB7C7
:1013F000DEB71B821B8248C08B81882F90E0880F4C
:10140000991F880F991F83579F4F9A8389838B81D8
:10141000282F30E0E981FA81838186958170F90176
:10142000EE55FF4F8083E981FA81838181708823A3
:1014300091F48B81282F30E0E981FA818281882F15
:1014400090E0FC01EB56FF4F80818095F901E0565A
:10145000FF4F808316C0E981FA81838181708823E0
:1014600081F08B81282F30E0E981FA818281882FF9
:1014700090E0FC01EB56FF4F8081F901E056FF4FF1
:1014800080838B818F5F8B838B81823008F4B4CF14
:101490000F900F900F90CF91DF910895DF93CF932E
:1014A00000D0CDB7DEB78A838A81823018F081E020
:1014B00089837AC08A81882F90E0880F991F880FCE
:1014C000991FFC01E057FF4F80818170813071F5D9
:1014D0008A81882F90E0880F991F880F991FFC013F
:1014E000E357FF4F20818A81882F90E0FC01E0566E
:1014F000FF4F9081822F692F0E9440098A81882F97
:1015000090E0880F991F880F991FFC01E257FF4F49
:10151000808160E00E94C9078A81882F90E0FC01E9
:10152000EE55FF4F81E0808319823EC08A81882F6B
:1015300090E0880F991F880F991FFC01E057FF4F1B
:1015400080818170882371F58A81882F90E0880FCF
:10155000991F880F991FFC01E357FF4F20818A8153
:10156000882F90E0FC01E056FF4F9081822F692F79
:101570000E9440098A81882F90E0880F991F880F68
:10158000991FFC01E257FF4F808161E00E94C9076B
:101590008A81882F90E0FC01EE55FF4F81E0808327
:1015A000198202C082E0898389810F900F90CF91C8
:1015B000DF910895DF93CF9300D0CDB7DEB78A8354
:1015C0008A81823018F081E089834CC08A81882F1B
:1015D00090E0880F991F880F991FFC01E057FF4F7B
:1015E000808181708130B9F48A81882F90E0880FE2
:1015F000991F880F991FFC01E257FF4F808161E01E
:101600000E94C9078A81882F90E0FC01EE55FF4FA8
:101610001082198227C08A81882F90E0880F991F35
:10162000880F991FFC01E057FF4F8081817088234C
:10163000B9F48A81882F90E0880F991F880F991F2D
:10164000FC01E257FF4F808160E00E94C9078A8158
:10165000882F90E0FC01EE55FF4F1082198202C0E6
:1016600082E0898389810F900F90CF91DF91089557
:10167000DF93CF9300D00F92CDB7DEB78A836B8311
:101680008B818A3018F48A81823018F081E0898356
:101690005AC08A81882F90E0880F991F880F991F60
:1016A000FC01E057FF4F80818170813079F48A819D
:1016B000282F30E08B81882F90E0FC01EB56FF4F04
:1016C0008081F901E056FF4F80831DC08A81882FF9
:1016D00090E0880F991F880F991FFC01E057FF4F7A
:1016E00080818170882379F48A81282F30E08B8172
:1016F000882F90E0FC01EB56FF4F80818095F90127
:10170000E056FF4F80838A81882F90E0FC01EE55E0
:10171000FF4F80818130B1F48A81882F90E0880F5B
:10172000991F880F991FFC01E357FF4F20818A8181
:10173000882F90E0FC01E056FF4F9081822F692FA7
:101740000E944009198289810F900F900F90CF91CC
:10175000DF9108950F931F93DF93CF93CDB7DEB73B
:10176000C954D0400FB6F894DEBF0FBECDBF0E9463
:10177000A3050E94F309FE01E95BFF4F10829E0161
:10178000285B3F4F80E0B9010E9457089E01275B0C
:101790003F4F81E0B9010E945708FE01E85BFF4F0F
:1017A0008081882309F09AC0FE01ED5BFF4F80E045
:1017B00090E0A6E9B3E480839183A283B3838E0192
:1017C000015C1F4FFE01ED5BFF4F608171818281E3
:1017D000938120E030E04AEF54E40E941F02DC01D4
:1017E000CB01F80180839183A283B383FE01FF962E
:1017F000608171818281938120E030E040E85FE385
:101800000E94790388232CF481E090E09EAF8DAF95
:1018100046C0FE01FF96608171818281938120E044
:101820003FEF4FE757E40E941903181664F5FE01D5
:10183000ED5BFF4F608171818281938120E030E018
:1018400040E251E40E941F02DC01CB01BC01CD014A
:101850000E944900DC01CB019EAF8DAF0FC088EC28
:1018600090E09CAF8BAF8BAD9CAD0197F1F79CAF37
:101870008BAF8DAD9EAD01979EAF8DAF8DAD9EAD03
:10188000009769F716C0FE01FF9660817181828121
:1018900093810E944900DC01CB019EAF8DAF8DADDD
:1018A0009EAD9AAF89AF89AD9AAD0197F1F79AAF26
:1018B00089AFDE01A95BBF4FFE01E95BFF4F80816D
:1018C0008F5F8C93FE01E95BFF4F8081843108F4C8
:1018D00093C0FE01E95BFF4F10828EC0FE01E75B03
:1018E000FF4F8081882309F087C080E090E0A6E95F
:1018F000B3E48DAB9EABAFABB8AF6DA97EA98FA99A
:1019000098AD20E030E04AEF54E40E941F02DC0171
:10191000CB0189AB9AABABABBCAB69A97AA98BA95C
:101920009CA920E030E040E85FE30E94790388232F
:101930002CF481E090E098AB8FA73FC069A97AA909
:101940008BA99CA920E03FEF4FE757E40E941903C1
:1019500018164CF56DA97EA98FA998AD20E030E04E
:1019600040E251E40E941F02DC01CB01BC01CD0129
:101970000E944900DC01CB0198AB8FA70FC088EC17
:1019800090E09EA78DA78DA59EA50197F1F79EA734
:101990008DA78FA598A9019798AB8FA78FA598A918
:1019A000009769F714C069A97AA98BA99CA90E941C
:1019B0004900DC01CB0198AB8FA78FA598A99CA704
:1019C0008BA78BA59CA50197F1F79CA78BA7FE0180
:1019D000E95BFF4F8081882351F0DE01A95BBF4F97
:1019E000FE01E95BFF4F808181508C9305C0FE01B1
:1019F000E95BFF4F84E1808380E00E944E0AFE0194
:101A0000E95BFF4F80819AE0692F0E947A0E982F40
:101A100080E0692F0E94380B80E090E0A0EAB0E4FB
:101A20008FA398A7A9A7BAA76FA178A589A59AA5FA
:101A300020E030E04AEF54E40E941F02DC01CB01B9
:101A40008BA39CA3ADA3BEA36BA17CA18DA19EA1E2
:101A500020E030E040E85FE30E94790388232CF423
:101A600081E090E09AA389A33FC06BA17CA18DA1E6
:101A70009EA120E03FEF4FE757E40E94190318169C
:101A80004CF56FA178A589A59AA520E030E040E249
:101A900051E40E941F02DC01CB01BC01CD010E9478
:101AA0004900DC01CB019AA389A30FC088EC90E028
:101AB00098A38F8F8F8D98A10197F1F798A38F8F9F
:101AC00089A19AA101979AA389A389A19AA10097B4
:101AD00069F714C06BA17CA18DA19EA10E94490051
:101AE000DC01CB019AA389A389A19AA19E8F8D8F36
:101AF0008D8D9E8D0197F1F79E8F8D8F80E00E94D6
:101B0000DA0A80E090E0A0EAB0E4898F9A8FAB8F88
:101B1000BC8F698D7A8D8B8D9C8D20E030E04AEFF3
:101B200054E40E941F02DC01CB018D8B9E8BAF8B96
:101B3000B88F6D897E898F89988D20E030E040E8EC
:101B40005FE30E94790388232CF481E090E09C8B72
:101B50008B8B3FC06D897E898F89988D20E03FEF08
:101B60004FE757E40E94190318164CF5698D7A8DDA
:101B70008B8D9C8D20E030E040E251E40E941F02FA
:101B8000DC01CB01BC01CD010E944900DC01CB018D
:101B90009C8B8B8B0FC088EC90E09A8B898B89890A
:101BA0009A890197F1F79A8B898B8B899C89019788
:101BB0009C8B8B8B8B899C89009769F714C06D89EE
:101BC0007E898F89988D0E944900DC01CB019C8B16
:101BD0008B8B8B899C89988B8F878F8598890197B0
:101BE000F1F7988B8F8781E00E944E0AFE01E95B36
:101BF000FF4F80819AE0692F0E947A0E892F982FDB
:101C000081E0692F0E94380B80E090E0A0EAB0E408
:101C10008B879C87AD87BE876B857C858D859E85F0
:101C200020E030E04AEF54E40E941F02DC01CB01C7
:101C30008F839887A987BA876F81788589859A85E8
:101C400020E030E040E85FE30E94790388232CF431
:101C500081E090E09E838D833FC06F817885898588
:101C60009A8520E03FEF4FE757E40E9419031816CA
:101C70004CF56B857C858D859E8520E030E040E2CB
:101C800051E40E941F02DC01CB01BC01CD010E9486
:101C90004900DC01CB019E838D830FC088EC90E06E
:101CA0009C838B838B819C810197F1F79C838B8331
:101CB0008D819E8101979E838D838D819E8100976A
:101CC00069F714C06F81788589859A850E944900DB
:101CD000DC01CB019E838D838D819E819A838983D4
:101CE00089819A810197F1F79A83898381E00E9423
:101CF000DA0A45CD991B79E004C0991F961708F0C0
:101D0000961B881F7A95C9F7809508952F923F9268
:101D10004F925F926F927F928F929F92AF92BF92FB
:101D2000CF92DF92EF92FF920F931F93CF93DF93A7
:101D3000CDB7DEB7CA1BDB0B0FB6F894DEBF0FBE04
:101D4000CDBF09942A88398848885F846E847D8451
:101D50008C849B84AA84B984C884DF80EE80FD8053
:101D60000C811B81AA81B981CE0FD11D0FB6F894C9
:0E1D7000DEBF0FBECDBFED010895F894FFCF8A
:101D7E00000000000000000003010701D300D7009F
:101D8E0000FFFF00003B003800350032003A0037FC
:101D9E0000340031003900360033003000000200FC
:101DAE0001000300013F065B4F666D7D077F6F00EC
:00000001FF
