:100000000C942A000C9447000C9447000C94470071
:100010000C9447000C9447000C9447000C94EA049D
:100020000C9447000C9447000C9447000C94470034
:100030000C9447000C9447000C9447000C94470024
:100040000C9447000C9447000C9447000C94470014
:100050000C94470011241FBECFE5D8E0DEBFCDBF12
:1000600010E0A0E6B0E0E2E9FAE002C005900D92EF
:10007000AA38B107D9F710E0AAE8B0E001C01D9294
:10008000AC38B107E1F70E941D050C9447050C94AC
:100090000000DF93CF93CDB7DEB727970FB6F89464
:1000A000DEBF0FBECDBF1F821F8246C18F81882F4A
:1000B00090E0880F991F8F599F4F9C838B83EB8112
:1000C000FC8180818074882309F496C0EB81FC81D7
:1000D00080818370882F90E0880F991FFC01E6587B
:1000E000FF4FA081B181EB81FC8180818370882FDB
:1000F00090E0880F991FFC01E658FF4F0190F081B6
:10010000E02D8081482FEB81FC818081869586954A
:100110008F70282F30E081E090E0022E02C0880F1F
:10012000991F0A94E2F7842B8C93EB81FC818081E8
:100130008078882381F1EB81FC8180818370882F16
:1001400090E0880F991FFC01EE58FF4FA081B1810C
:10015000EB81FC8180818370882F90E0880F991F4C
:10016000FC01EE58FF4F0190F081E02D8081482F77
:10017000EB81FC818081869586958F70282F30E0F9
:1001800081E090E0022E02C0880F991F0A94E2F7E6
:10019000842B8C93CEC0EB81FC8180818370882F6F
:1001A00090E0880F991FFC01EE58FF4FA081B181AC
:1001B000EB81FC8180818370882F90E0880F991FEC
:1001C000FC01EE58FF4F0190F081E02D8081482F17
:1001D000EB81FC818081869586958F70282F30E099
:1001E00081E090E0022E02C0880F991F0A94E2F786
:1001F000809584238C939DC0EB81FC8180818074E9
:10020000882309F096C0EB81FC8180818370882F60
:1002100090E0880F991FFC01E658FF4FA081B18143
:10022000EB81FC8180818370882F90E0880F991F7B
:10023000FC01E658FF4F0190F081E02D8081482FAE
:10024000EB81FC818081869586958F70282F30E028
:1002500081E090E0022E02C0880F991F0A94E2F715
:10026000809584238C93EB81FC818181817088232C
:1002700081F1EB81FC8180818370882F90E0880F71
:10028000991FFC01EE58FF4FA081B181EB81FC81E9
:1002900080818370882F90E0880F991FFC01EE58B1
:1002A000FF4F0190F081E02D8081482FEB81FC8190
:1002B0008081869586958F70282F30E081E090E0D0
:1002C000022E02C0880F991F0A94E2F7842B8C93A8
:1002D00030C0EB81FC8180818370882F90E0880F93
:1002E000991FFC01EE58FF4FA081B181EB81FC8189
:1002F00080818370882F90E0880F991FFC01EE5851
:10030000FF4F0190F081E02D8081482FEB81FC812F
:100310008081869586958F70282F30E081E090E06F
:10032000022E02C0880F991F0A94E2F78095842359
:100330008C938F818F5F8F838F81863008F4B6CE48
:100340001E821E82BFC08E81282F30E0C901880F17
:10035000991F880F991F820F931F83599F4F9A836C
:100360008983E981FA818081882F90E0880F991F25
:10037000FC01E658FF4FA081B181E981FA819281A9
:10038000E981FA81818189238C931D8294C0E9815E
:10039000FA819281E981FA8181818923282F30E0D5
:1003A0008D81882F90E0A90102C0559547958A95C7
:1003B000E2F7CA0181709070009709F03DC0E981B1
:1003C000FA818081882F90E0880F991FFC01EE58F8
:1003D000FF4FA081B181E981FA818081882F90E06F
:1003E000880F991FFC01EE58FF4F0190F081E02D1E
:1003F0008081482F8D81282F30E081E090E002C07D
:10040000880F991F2A95E2F780954823E981FA81A0
:100410009481E981FA8181818923282F30E08D81BF
:10042000882F90E0B90102C0660F771F8A95E2F726
:10043000CB01842B8C933CC0E981FA818081882F89
:1004400090E0880F991FFC01EE58FF4FA081B18109
:10045000E981FA818081882F90E0880F991FFC0143
:10046000EE58FF4F0190F081E02D8081482F8D8163
:10047000282F30E081E090E002C0880F991F2A9574
:10048000E2F780954823E981FA819381E981FA8135
:1004900081818923282F30E08D81882F90E0B90158
:1004A00002C0660F771F8A95E2F7CB01842B8C93ED
:1004B0008D818F5F8D838D81883008F468CF8E8128
:1004C0008F5F8E838E81882309F43DCF27960FB6E8
:1004D000F894DEBF0FBECDBFCF91DF910895DF93BB
:1004E000CF9300D000D00F92CDB7DEB78C836D8351
:1004F0008C81863018F081E08B8376C08D818130CD
:1005000031F08D81882319F082E08B836DC08C815E
:10051000882F90E0880F991F8F599F4F9A83898366
:100520008D81813081F5E981FA8180818370882F06
:1005300090E0880F991FFC01EE58FF4FA081B18118
:10054000E981FA8180818370882F90E0880F991F5C
:10055000FC01EE58FF4F0190F081E02D8081482F83
:10056000E981FA818081869586958F70282F30E009
:1005700081E090E0022E02C0880F991F0A94E2F7F2
:10058000842B8C9330C0E981FA8180818370882F1D
:1005900090E0880F991FFC01EE58FF4FA081B181B8
:1005A000E981FA8180818370882F90E0880F991FFC
:1005B000FC01EE58FF4F0190F081E02D8081482F23
:1005C000E981FA818081869586958F70282F30E0A9
:1005D00081E090E0022E02C0880F991F0A94E2F792
:1005E000809584238C931B828B810F900F900F90AA
:1005F0000F900F90CF91DF910895DF93CF93CDB7F8
:10060000DEB727970FB6F894DEBF0FBECDBF8D8340
:100610007F836E838D81863018F081E08C833EC0AD
:100620008E819F81009719F483E08C8337C08D8180
:10063000882F90E0880F991F8F599F4F9B838A8343
:10064000EA81FB8180818370882F90E0880F991F59
:10065000FC01EE57FF4F0190F081E02D8081282FA3
:1006600030E0EA81FB818081869586958F70882FA6
:1006700090E0A90102C0559547958A95E2F7CA0115
:10068000817089838981882321F4EE81FF81108222
:1006900004C0EE81FF8181E080831C828C812796DB
:1006A0000FB6F894DEBF0FBECDBFCF91DF91089596
:1006B000DF93CF9300D000D00F92CDB7DEB78C83FD
:1006C0006D838C81863018F081E08B8376C08D81BC
:1006D000882331F08D81813019F082E08B836DC0E9
:1006E0008C81882F90E0880F991F8F599F4F9A8394
:1006F00089838D81813081F5E981FA8180818370E0
:10070000882F90E0880F991FFC01E658FF4FA081C9
:10071000B181E981FA8180818370882F90E0880F10
:10072000991FFC01E658FF4F0190F081E02D808178
:10073000482FE981FA818081869586958F70282FD0
:1007400030E081E090E0022E02C0880F991F0A94E9
:10075000E2F7842B8C9330C0E981FA818081837029
:10076000882F90E0880F991FFC01E658FF4FA08169
:10077000B181E981FA8180818370882F90E0880FB0
:10078000991FFC01E658FF4F0190F081E02D808118
:10079000482FE981FA818081869586958F70282F70
:1007A00030E081E090E0022E02C0880F991F0A9489
:1007B000E2F7809584238C931B828B810F900F909E
:1007C0000F900F900F90CF91DF910895DF93CF930B
:1007D00000D000D00F92CDB7DEB78C836D838C81B3
:1007E000882319F081E08B8321C08C81282F30E091
:1007F000C901880F991F880F991F820F931F835972
:100800009F4F9A838983E981FA818081882F90E0C4
:10081000880F991FFC01EE58FF4FA081B181E9813B
:10082000FA8191818D8189238C931B828B810F901A
:100830000F900F900F900F90CF91DF910895DF935D
:10084000CF9300D000D000D0CDB7DEB78C837E83AD
:100850006D838C81882319F081E08B8327C08D8183
:100860009E81009719F483E08B8320C08C81282F10
:1008700030E0C901880F991F880F991F820F931FBD
:1008800083599F4F9A838983E981FA818081882FD8
:1008900090E0880F991FFC01EE57FF4F0190F08107
:1008A000E02D8081ED81FE8180831B828B812696E5
:1008B0000FB6F894DEBF0FBECDBFCF91DF91089584
:1008C000DF93CF9300D000D00F92CDB7DEB78C83EB
:1008D0006D838C81882319F081E08B8321C08C810A
:1008E000282F30E0C901880F991F880F991F820FA8
:1008F000931F83599F4F9A838983E981FA8180816D
:10090000882F90E0880F991FFC01E658FF4FA081C7
:10091000B181E981FA8191818D8189238C931B8238
:100920008B810F900F900F900F900F90CF91DF91D0
:100930000895DF93CF93CDB7DEB7AFE4B0E0EFE437
:10094000F0E080818E7F8C93AFE4B0E0EFE4F0E0E4
:1009500080818D7F8C93AEE4B0E0EEE4F0E08081A6
:1009600088608C93AEE4B0E0EEE4F0E080818F7EAE
:100970008C93AEE4B0E0EEE4F0E0808181608C9393
:10098000AEE4B0E0EEE4F0E080818B7F8C93AEE4E7
:10099000B0E0EEE4F0E0808182608C93A9E5B0E005
:1009A000E9E5F0E0808180618C93EAE4F0E08CE797
:1009B00090E091838083CF91DF910895DF93CF936F
:1009C000CDB7DEB780916000815080936000CF91F9
:1009D000DF9108951F920F920FB60F9211242F935B
:1009E0003F934F935F936F937F938F939F93AF93B7
:1009F000BF93EF93FF93DF93CF93CDB7DEB7809193
:100A00008A0090918B00009729F0E0918A00F09184
:100A10008B000995CF91DF91FF91EF91BF91AF913D
:100A20009F918F917F916F915F914F913F912F9106
:100A30000F900FBE0F901F901895DF93CF930F92DA
:100A4000CDB7DEB78EED94E090938B0080938A0053
:100A50000E9449000E949904AFE5B0E0EFE5F0E0A4
:100A6000808180688C931982809160008823E1F7EF
:100A70008981882319F481E0898301C0198284E087
:100A800069810E946F0281E080936000EDCFF8944D
:020A9000FFCF96
:100A920001030107010B01530057005B0002FFFF36
:100AA20000003B003800350032003A0037003400C5
:0A0AB2003100390036003300300037
:00000001FF
